:020000040800F2
:10000000602000200501000819110008710F000888
:10001000750F0008030900084919000800000000D6
:10002000000000000000000000000000D9160008D9
:100030000709000800000000E1150008D1180008B9
:100040001F0100081F0100081F0100081F01000810
:100050001F0100081F0100081F0100081F01000800
:100060001F0100081F0100081F0100081F010008F0
:100070001F0100081F0100081F0100081F010008E0
:100080001F0100081F0100081F0100081F010008D0
:100090001F0100081F0100081F0100081F010008C0
:1000A0001F0100081F0100081F0100081F010008B0
:1000B0001F0100081F0100081F0100081F010008A0
:1000C0001F0100081F0100081F0100081F01000890
:1000D0001F0100081F0100081F0100081F01000880
:1000E0001F0100081F0100081F010008DFF810D0E1
:1000F00000F090FB004800473D250008AFF300806A
:10010000602000200648804706480047FEE7FEE7DB
:10011000FEE7FEE7FEE7FEE7FEE7FEE7FEE7FEE7B7
:10012000E9180008ED000008D2B201E000F8012B48
:10013000491EFBD270470022F6E710B513460A4667
:1001400004461946FFF7F0FF204610BD80EA010281
:1001500010B502F00043400022D04A001FD0010E2B
:1001600001EB1261C0F35600C2F3560240F40000E6
:1001700042F40002A0FB022000047F39140400D0E6
:10018000401C50EA124001D44000491EC2B20C0685
:1001900004EBD010401C4008802A02D003E000206D
:1001A00010BD20F00100002900DA0020184310BD26
:1001B0002DE9FE4F804681EA0300C00F0C460090F7
:1001C00021F0004123F00045B8EB0200A94105D21F
:1001D0004046214690461C460B46024623F000400E
:1001E000104347D0270DC7F30A00C3F30A5102900A
:1001F000401A019040286BDAC3F3130040F4801BCF
:100200000098924620B10023D2EB030A63EB0B0B5C
:1002100001985946C0F14002504600F006FA0646E1
:100220000D4650465946019A00F01EFA10EB0800A0
:100230006141002487EA115284EAE7731A4340D0EF
:10024000009A62B3019A012A4FEA075215DC001B9B
:1002500061EB02014FF0004202EA0752CDE9004291
:10026000001C41F5801132462B4600F055FA03B0D0
:10027000BDE8F08F40462146F9E7001B61EB020123
:10028000001C41F5801300185B412018A2F50017EF
:1002900047EB030140EAD570B6196D4111E06D08D6
:1002A0004FEA360645EAC0754FEA0752001B61EB7C
:1002B0000201001C41F5801149084FEA3000001985
:1002C000514132462B4603B0BDE8F04F00F015BA5D
:1002D0000098012240000023D0EB020263EBE073A0
:1002E000009821464FEAE074B8EB000061EB04018E
:1002F000E9E783F000435BE781F0004158E72DE92F
:10030000FE4F81EA030404F0004421F00041009410
:100310004FF0000B23F0004350EA01045ED052EA94
:1003200003045BD0C3F30A54C1F30A552C44A4F26E
:10033000F3340194A0FB0254C1F3130141F4801182
:10034000C3F3130343F4801301FB024400FB034E89
:10035000840A970A44EA815447EA8357A4FB076852
:1003600002958D0A05FB07854FEA932C04FB0C547C
:100370002705029D4FEA065847EA1637B5EB0805F0
:100380006EEB070C870E920E47EA811742EA831242
:10039000A7FB0201B6EB0B0164EB00042B0D43EA53
:1003A0000C335E1844EB1C50DA465146E7FB020161
:1003B000C5F313044FEA0B3343EA14534FEA0432F4
:1003C000019C43EA0603A4F10C040294009CCDE9CD
:1003D00000B400F0A1F903B0BDE8F08F00200146A1
:1003E000F9E72DE9F04D81EA030404F0004B21F018
:1003F000004514464FF0000A23F0004150EA050280
:1004000020D054EA01021DD0C5F30A570246C5F3B5
:100410001303C1F31300C1F30A5640F4801543F4EB
:100420008013A7EB0608101BD64608F2FD3873EBC5
:10043000050002D308F1010801E092185B41B8F110
:10044000000F03DA00200146BDE8F08D00204FF4D4
:100450008011064684460EE0171B73EB050705D393
:10046000121B63EB050306434CEA010C49084FEAF3
:10047000300092185B4150EA0107EDD152EA0300C7
:1004800012D082EA040083EA0501084305D0101B5C
:10049000AB4106D20122002306E000224FF00043C8
:1004A00002E06FF0010253101AEB06004CEB08510A
:1004B00010EB0A0041EB0B01BDE8F04D00F01DB957
:1004C00096230022114600F0EAB80EB540F23341FF
:1004D00002910021CDE900110A460B4600F01CF9FB
:1004E00003B000BD20F00040C10DC0F3160040F481
:1004F00000007F2901DA00207047962903DCC1F152
:100500009601C8407047963988407047C1F30A5237
:1005100010B5C1F3130140F2FF3341F480119A4248
:1005200001DA002010BD40F233439A42A2F2334276
:1005300003DC524200F088F810BD904010BD00F07E
:10054000004230F000400AD0C10D01F56071C0F3E7
:10055000160042EA0151C2084007114370470020CB
:100560000146704701F0004330B421F0004150EAE9
:10057000010206D00A0DA2F56072C1F31301002A30
:1005800002DC30BC00207047440F44EAC104C100C3
:10059000E01830BC00EBC25000F078B830B50B4624
:1005A000014600202022012409E021FA02F59D42A3
:1005B00005D303FA02F5491B04FA02F52844151E77
:1005C000A2F10102F1DC30BD2DE9F05F054600200B
:1005D00092469B4688460646814640241BE02846B4
:1005E00041464746224600F02FF853465A46C01A65
:1005F000914110D311461846224600F016F82D1AE4
:1006000067EB01084F4622460120002100F00DF85B
:1006100017EB00094E41201EA4F10104DFDC48461F
:1006200031462A464346BDE8F09F202A04DB203AA3
:1006300000FA02F1002070479140C2F1200320FA35
:1006400003F3194390407047202A04DB203A21FA33
:1006500002F00021704721FA02F3D040C2F12002DB
:100660009140084319467047202A06DBCB17203AF1
:1006700041FA02F043EAE07306E041FA02F3D040A7
:10068000C2F1200291400843194670470029A8BFD3
:100690007047401C490008BF20F00100704710B4AB
:1006A000B0FA80FC00FA0CF050EA010404BF10BC60
:1006B000704749B1CCF1200421FA04F411FA0CF18D
:1006C00018BF012121430843A3EB0C01CB1D4FEAC6
:1006D00000614FEA102042BF002010BC704700EBC1
:1006E000C35010440029A4BF10BC7047401C4900EF
:1006F00008BF20F0010010BC704710B5141E73F144
:10070000000408DA401C41F1000192185B411A43D1
:1007100001D120F0010010BD2DE9F04D92469B461D
:1007200011B1B1FA81F202E0B0FA80F220329046C3
:10073000FFF77BFF04460F4640EA0A0041EA0B013F
:1007400053465A46084313D0114653EA010019D0C4
:10075000C8F140025046FFF777FF05460E46504667
:1007600059464246FFF761FF084305D0012004E0E7
:1007700020463946BDE8F08D0020054346EAE07684
:100780002C4337430A986305E40AA0EB08000022D3
:10079000FD0A44EA47540A3002D500200146E9E741
:1007A000010510196941DDE9084500196941BDE8F5
:1007B000F04DA2E7C1F30A52C1F3130140F2FF3337
:1007C00041F480119A4202DA00200146704740F25B
:1007D00033439A42A2F2334202DC5242FFF734BF63
:1007E000FFF723BF30B5041E71F1000404DB4FF0A6
:1007F0000044404264EB0101141E73F1000405DB68
:100800001C464FF00043524263EB0403994208BF79
:10081000904230BD064C074D06E0E06840F0010311
:1008200094E8070098471034AC42F6D3FFF762FC17
:10083000743D0008943D0008F0B5837B03B9F0BD1A
:10084000002901DB802900DBF9E7002A01DB402ACF
:1008500000DBF4E7438BBBB1838BABB1B0F916304F
:100860008B4205DCB0F91630448B23448B4200DC0C
:10087000E5E7B0F91830934205DCB0F91830848B05
:100880002344934200DCDAE7837B012B1CD1D5178C
:1008900002EB5575ED1001EBC5154668755D144604
:1008A000D61702EB5676F610A2EBC6070126BE401D
:1008B0003543EEB21346D51702EB5575ED1001EB3B
:1008C000C51547687E551AE0D51702EB5575ED1032
:1008D00001EBC5154668755D1446D61702EB5676D2
:1008E000F610A2EBC6070126BE40B5431346D61745
:1008F00002EB5676F61001EBC6164768BD5500BFF1
:100900009DE700BFFEE7704770B5044600F022F88F
:10091000054800680519002600BF0348006800214B
:10092000401BB141F9D370BD1400002070B50446DE
:1009300000F010F800F0D8FA021941F10000551C3F
:1009400040F1000600BF00F0CFFA401BB141FAD3DE
:1009500070BD00002DE9F04186B02E4800780028D7
:1009600055D101202B490870142101A8FFF7E3FBA2
:100970004FF0E020006920F001004FF0E021086115
:1009800000202549086001A800F03CFE4FF0E0205F
:10099000006940F002004FF0E021086100211F488B
:1009A000C1774FF47A710298B0FBF1F4B4F1807F13
:1009B00009D3E4084FF0E020006920F004004FF074
:1009C000E021086107E04FF0E020006940F00400FA
:1009D0004FF0E0210861601E4FF0E02148610846B9
:1009E000006940F001000861496921F07F41481C1D
:1009F000FFF76BFD07463A460B4600200849FFF714
:100A0000F0FC0546FFF7AEFD0649086000BF06B0E2
:100A1000BDE8F081180000201400002000ED00E087
:100A200000408F401C0000202DE9F04F87B00546A4
:100A30000F4690469946A87B20B9287B10B907B08D
:100A4000BDE8F08F95F80DA0012068734846FFF7C8
:100A50003CFD0022214BCDE90001FFF7C2FCCDE9AE
:100A6000020101F0DFFBCDE90401FFF74FFD1FFAA2
:100A700080FB00242CE0002625E0E21704EB5272F4
:100A8000D21006FB0B23119AD25CE31704EB5373CD
:100A9000DB10A4EBC30C802343FA0CF31A4042B1E1
:100AA00008EB060002B2381901B2284600F048FDF2
:100AB00007E008EB060002B2381901B22846FFF73A
:100AC000BBFE701C06B210988642D6DB601C04B2D6
:100AD0004C45D0DB85F80DA000BFB0E700002040FA
:100AE0002DE9F04F87B004460F46A06810B907B053
:100AF000BDE8F08F3946204601F084FD064600250A
:100B0000002E07DBA068006A06EB460101EBC60178
:100B100000EB8105608C00287CD0A08C002879D067
:100B2000B4F91680B4F91890608B0FFA80FAA08B94
:100B30000FFA80FB608B70B3A08B60B3E08BADF8D5
:100B40001400208CADF81600608CADF81800A08C55
:100B5000ADF81A00E08AADF80C00208BADF80E005D
:100B6000608BADF81000A08BADF8120004980090D7
:100B7000039BDDE9051201A800F050F9BDF804005F
:100B8000E082BDF806002083BDF808006083BDF850
:100B90000A00A08308E0FFE7E08BE082208C20833E
:100BA000608C6083A08CA083B4F91000B4F91E108F
:100BB000884207DBB4F91E00618C0844B4F91010B8
:100BC000884201DCE08B2082A5B1B4F91000A9892C
:100BD0000844B4F91E10628C114488420ADBE08B91
:100BE0002082608AA168898A0844A168098B084428
:100BF00000B260820D2F02D1E08B20820AE00A2F22
:100C000008D1608AA168898A0844A168098B0844D0
:100C100000B260826DB3A068808A0090608AD4F8C8
:100C200008C0BCF818C0A0EB0C00D4F808C0BCF891
:100C300014C0A0EB0C0002B2AB89B4F9101020462E
:100C400000F02BF8E98BA86ACDE90010608AB5F8AE
:100C500022C0A0EB0C00B5F81EC0A0EB0C0002B245
:100C6000208AB5F820C0604401B2AB8B2046FFF764
:100C7000DBFE608C48B1A08C38B1A4F81680A4F8D3
:100C80001890A4F81AA0A4F81CB025B1208AA9894C
:100C9000084400B2208200BF29E72DE9F0478046D2
:100CA0000D4616469946DDF820A098F80E0008B9C2
:100CB000BDE8F0872C460EE0374606E03A4621466E
:100CC0004046FFF7B9FD781C07B206EB0A00B842B0
:100CD000F4DC601C04B205EB0900A042ECDC00BFB0
:100CE000E6E72DE9F041024600250026002000231A
:100CF0000024002791F803C00CF00F0591F803C001
:100D00000CF0100CBCF1000F03D091F802C04CEABB
:100D1000050591F800C0BCF1000F31D01468002027
:100D20002BE04FF0010C0CFA00F3B1F800C00CEA14
:100D300003069E4220D183004FF00F0C0CFA03F7FC
:100D4000BC4305FA03FC4CEA040491F803C0BCF16F
:100D5000280F06D14FF0010C0CFA00FCC2F814C0A9
:100D60000AE091F803C0BCF1480F05D14FF0010C27
:100D70000CFA00FCC2F810C0401C0828D1D3146043
:100D8000B1F800C0BCF1FF0F34DD546800202EE044
:100D900000F1080C4FF0010808FA0CF3B1F800C09C
:100DA0000CEA03069E4221D183004FF00F0C0CFA8F
:100DB00003F7BC4305FA03FC4CEA040491F803C0B2
:100DC000BCF1280F05D100F1080C08FA0CF8C2F8A4
:100DD000148091F803C0BCF1480F07D100F1080C52
:100DE0004FF0010808FA0CF8C2F81080401C0828DF
:100DF000CED35460BDE8F0810246002093680B40DA
:100E00000BB1012000E00020704741617047016193
:100E100070470AB1016100E0416170470FB4FCB551
:100E20000446002500950195BDF92050BDF92860C4
:100E3000B54202DDBDF9205001E0BDF92850284639
:100E4000BDF92050BDF824603544BDF92860BDF8D7
:100E50002C703E44B54205DDBDF92850BDF82C602C
:100E6000354404E0BDF92050BDF82460354429B272
:100E7000BDF92250BDF92A60B54202DDBDF922500C
:100E800001E0BDF92A502A46BDF92250BDF826607E
:100E90003544BDF92A60BDF82E703E44B54205DDEB
:100EA000BDF92A50BDF82E60354404E0BDF922504A
:100EB000BDF8266035442BB288420DDA9A420BDA2F
:100EC000ADF80000ADF802200D1AADB2ADF8045037
:100ED0009D1AADB2ADF80650009D2560019D65607C
:100EE000FCBC5DF814FB00002DE9F041FFF732FD7A
:100EF0004FF0E020006920F480304FF0E0210861DD
:100F00001948046800250846866905E04FF0E0208E
:100F100086691548046800254FF0E020006900F458
:100F200080300028F2D14FF47A722146A1FB027C76
:100F300005FB02C204FB00253C464FF0E021496955
:100F4000881BFFF7BDFA8046084801684046FFF756
:100F5000FDF80746FFF7C6FA041945F100052046DB
:100F60002946BDE8F0810000140000201C0000208C
:100F700000BFFEE700BFFEE708B5034800906946E2
:100F8000024800F06BF908BD212500083800002058
:100F900038B5044635492068884204D1012104202F
:100FA00000F020FB19E032492068884204D1012179
:100FB000082000F017FB10E02E492068884204D179
:100FC0000121102000F00EFB07E02B492068884229
:100FD00003D10121202000F005FBA1890122A06896
:100FE000FFF717FFA18801222068FFF712FF1F49B2
:100FF000A068884204D10121042000F0F3FA19E02E
:101000001B49A068884204D10121082000F0EAFAB7
:1010100010E01849A068884204D10121102000F096
:10102000E1FA07E01449A068884203D10121202099
:1010300000F0D8FAA088ADF8000014208DF8030065
:1010400002208DF8020069462068FFF74AFEA08959
:10105000ADF8000014208DF8030002208DF8020086
:101060006946A068FFF73DFE38BD0000000801405A
:10107000000C014000100140001401402DE9F04136
:1010800004460E4617469846A1890122A068FFF73C
:10109000C0FEA18801222068FFF7BBFEA1890022C3
:1010A000A068FFF7B6FE012001F02AF906F0FE0164
:1010B000204600F012FB30B1204600F051FB4FF00B
:1010C000FF30BDE8F08100250CE0795D204600F09E
:1010D00004FB28B1204600F043FB6FF00100F0E76D
:1010E000681C85B24545F0DB204600F039FB002046
:1010F000E7E7000010B506480649086080158880BB
:1011000003488860401588810846FFF741FF10BDFD
:101110000008014028000020704710B504464FF435
:1011200080616068FFF707F810BD2DE9F05F824627
:101130000E46002700BF3846791C8FB2355C05B9D2
:1011400088E005F0800028B9AB4659465046FFF7C5
:10115000C7FCF0E705F0E000C02814D105F01F053A
:101160003846791C8FB2345C1CB104F0C000802872
:1011700000D06FE004F03F0444EA851B5946504616
:10118000FFF7AEFCD7E705F0F000E02826D105F028
:101190000F053846791C8FB2345C1CB104F0C000D6
:1011A000802800D056E004F03F043846791C8FB206
:1011B00016F80080B8F1000F03D008F0C0008028B6
:1011C00000D047E008F03F08280340EA841040EAD6
:1011D000080B59465046FFF783FCACE705F0F800D2
:1011E000F028A8D105F007053846791C8FB2345C89
:1011F0001CB104F0C000802800D02BE004F03F04B4
:101200003846791C8FB216F80080B8F1000F03D071
:1012100008F0C000802800D01CE008F03F083846E5
:10122000791C8FB216F80090B9F1000F03D009F0C5
:10123000C000802800D00DE009F03F09A80440EA72
:10124000043040EA841040EA090B59465046FFF743
:1012500047FC70E700BFBDE8F09F000038B50446CA
:101260000D462868206040F2014001F095F9606069
:10127000606810B96FF0010038BD6068401C6060A4
:101280004FF480616068FEF756FF00231A46AE21D6
:10129000204600F019F910B14FF0FF30ECE7802044
:1012A000009001236A46D521204600F00DF910B1C7
:1012B0004FF0FF30E0E73F20009001236A46A8216D
:1012C000204600F001F910B14FF0FF30D4E70020C4
:1012D000009001236A46D321204600F0F5F810B1B2
:1012E0004FF0FF30C8E700231A464021204600F0A7
:1012F000EBF810B14FF0FF30BEE71420009001234F
:101300006A468D21204600F0DFF810B14FF0FF3023
:10131000B2E70020009001236A462021204600F019
:10132000D3F810B14FF0FF30A6E700231A46A121F1
:10133000204600F0C9F810B14FF0FF309CE70023C1
:101340001A46C821204600F0BFF810B14FF0FF3018
:1013500092E71220009001236A46DA21204600F02D
:10136000B3F810B14FF0FF3086E7CF200090012393
:101370006A468121204600F0A7F810B14FF0FF30F7
:101380007AE7F120009001236A46D921204600F037
:101390009BF810B14FF0FF306EE720200090012342
:1013A0006A46DB21204600F08FF810B14FF0FF3085
:1013B00062E700231A462E21204600F085F810B17E
:1013C0004FF0FF3058E700231A46A421204600F0D2
:1013D0007BF810B14FF0FF304EE700231A46A621EC
:1013E000204600F071F810B14FF0FF3044E70023C1
:1013F0001A46AF21204600F067F810B14FF0FF30D9
:101400003AE70120607320730020A073208260827D
:10141000A082E08320846084A0840248A060002031
:101420002AE70000483A00080FB410B592B004460D
:1014300016A8019002A8019A159900F087FA0020D9
:10144000019002A92046FFF770FE12B010BC5DF8B3
:1014500014FB38B5044600208DF8000001236A46CD
:101460002021204600F030F810B14FF0FF3038BD99
:1014700000208DF800007F208DF8010002236A46CD
:101480002121204600F020F810B14FF0FF30EEE7A8
:1014900000208DF8000007208DF8010002236A4625
:1014A0002221204600F010F810B14FF0FF30DEE7A7
:1014B0004FF480622046616800F027F810B14FF0C9
:1014C000FF30D4E70020D2E72DE9FC4105460E4667
:1014D0001746984600208DF800008DF80160002422
:1014E00005E0395DA01C0DF80010601CC4B2444535
:1014F000F7DBA21C694678202B68984718B14FF09B
:10150000FF30BDE8FC810020FBE72DE9F0410546F6
:101510000C461646002714F8018C402004F8010CF4
:10152000701C82B2611E78202B68984700B17F1E24
:1015300004F8018C3846BDE8F08101824282704790
:101540002DE9FC5F04468A469346207B08B9BDE836
:10155000FC9F607B00B9FAE7607B00EBD07149101B
:10156000A0EB410139B1607B00EBD0714D102E46EC
:101570002F46A8460CE0607B00EBD0714D102E4644
:101580002F46A846A8F101001FFA80F8781E87B2FE
:10159000A07B0190207BA073AAEB08000FFA80F9D2
:1015A00016E0ABEB070000B2009008E04946204689
:1015B000009AFFF741F90098401C00B200900BEB35
:1015C000060100988142F1DA09F101000FFA80F971
:1015D0000AEB05004845E4DA0198A07300BFB6E7BE
:1015E0007047000029B1064A92690243044B9A6190
:1015F00004E0034A92698243014B9A6170470000FC
:101600000010024030B500210022002400232D4D9F
:101610006D6805F00C0121B1042905D0082923D1FA
:1016200005E0294D056022E0274D05601FE0254DAE
:101630006D6805F47012234D6D6805F48034022541
:1016400005EB92421CB9214D554305600BE01D4D41
:101650006D6805F400351DB11C4D5543056002E071
:10166000194D5543056002E0174D056000BF00BFEE
:10167000144D6D6805F0F0010909154D6B5C0568A6
:10168000DD4045600F4D6D6805F4E061090A104DBD
:101690006B5C4568DD4085600A4D6D6805F46051FE
:1016A000C90A0B4D6B5C4568DD40C560054D6D6832
:1016B00005F44041890B074D6B5CC568B5FBF3F53C
:1016C000056130BD0010024000127A0000093D00A3
:1016D0000000002010000020704770B504460E4640
:1016E00007251DE0A18800222068FFF792FB012357
:1016F000AB4033400BB1012300E000231A46A1891F
:10170000A068FFF786FB022000F0FAFDA188012205
:101710002068FFF77EFB022000F0F2FD681E45B254
:10172000002DDFDAA18800222068FFF772FBA18973
:101730000122A068FFF76DFB022000F0E1FDA18807
:1017400001222068FFF765FB022000F0D9FDA18986
:10175000A068FFF751FB012800D170BD0020FCE715
:1017600010B50446A18800222068FFF752FB012033
:1017700000F0C6FDA1890022A068FFF74AFB012006
:1017800000F0BEFDA18801222068FFF742FB012086
:1017900000F0B6FDA1890122A068FFF73AFB012005
:1017A00000F0AEFD10BD000008B50120ADF800004E
:1017B00048208DF8030069460148FFF792FA08BDFA
:1017C0000008014008B50120ADF8000014208DF894
:1017D000030001208DF8020069460248FFF781FAF4
:1017E00008BD00000008014010B500F001F810BD70
:1017F0000CB50020019000903348006840F4803020
:101800003149086000BF3048006800F400300090A3
:101810000198401C0190009818B90198B0F5A06F8C
:10182000F1D12948006800F4003010B10120009087
:1018300001E0002000900098012843D1234800686F
:1018400040F01000214908600846006820F00700B9
:1018500008600846006840F0020008601A484068C6
:10186000194948600846406848600846406840F4A6
:10187000806048600846406820F47C104860084654
:10188000406840F4E81048600846006840F0807006
:10189000086000BF0C48006800F000700028F9D014
:1018A0000948406820F0030007494860084640683E
:1018B00040F00200486000BF0348406800F00C00A0
:1018C0000828F9D10CBD00000010024000200240A1
:1018D0000448036840685A1C40F1000001490A604E
:1018E000486070471400002010B51348006840F0AD
:1018F00001001149086008464068104908400E4937
:101900004860084600680E4908400B4908600846D0
:10191000006820F4802008600846406820F4FE003B
:1019200048604FF41F008860FFF75EFF4FF00060D3
:101930000449086010BD0000001002400000FFF8DC
:10194000FFFFF6FE08ED00E000BFFEE737B51446E6
:101950000846064B6A46214600F0DCF80446694614
:10196000002000F05AFC20463EBD00001B2200086B
:1019700002E008C8121F08C1002AFAD17047704758
:10198000002001E001C1121F002AFBD170470000B6
:101990002DE9FF5F82B00021DDE90430020DDDF8A2
:1019A00040B0034318D044F61050A2F2FF32424335
:1019B0001514119801281FD0A5EB0B00401C5FEAFD
:1019C000000A4FF000064E4FDFF83891B0465046FF
:1019D00015D5CAF1000413E0119801244AA3012887
:1019E00001D16FEA0B010298119AC0E90031C0E9F8
:1019F000024206B0BDE8F09FCBF10000DFE70446ED
:101A00000021404A491842EB0450CDE9001012E091
:101A1000E00707D032463B4640464946FEF76FFC9A
:101A20008046894632463B4610461946FEF767FC1B
:101A300006460F466410002CEAD1DDE90401DDE919
:101A40000023BAF1000F06DAFEF759FC42464B4676
:101A5000FEF755FC05E0FEF7C4FC42464B46FEF798
:101A6000C0FC04460E460022284BFEF7BBFE03D8FE
:101A70004FF0FF30014607E00022254B204631465B
:101A8000FEF796FBFEF796FE102409E0002C0ADB19
:101A90000A220023FEF798FD039B30321A55641E7C
:101AA00050EA0102F2D1641C039AC4F111031444F8
:101AB000119A012A03D0012208430DD10AE00843FC
:101AC00004D000204FF0110B119072E7A3EB0B052F
:101AD0006D1E0DE05B4504DD4FF0000205F10105D0
:101AE00004E003DA4FF00002A5F10105002AECD072
:101AF00002981199C0E90231C0E9004579E7000078
:101B0000000014400000F03F300000000000F043EF
:101B10000000E03F2DE9FF4F95B09A468846064603
:101B20000025EEE1252877D100242746F94A012136
:101B3000039400E0044316F8013F203B01FA03F050
:101B40001042F7D130782A2811D06FF02F03307867
:101B5000A0F13002092A16D8039A44F0020402EBDD
:101B6000820203EB42021044761C0390EFE758F820
:101B7000042B0392002A03DA504244F400540390E9
:101B800044F00204761C30782E2816D116F8010F86
:101B900044F004042A280DD06FF02F023078A0F111
:101BA0003003092B09D807EB870302EB4303C7185F
:101BB000761CF3E758F8047B761C30786C280FD03D
:101BC00006DC4C2817D068280DD06A2814D104E010
:101BD000742810D07A280FD10DE044F400140AE0E4
:101BE00044F4801401E044F440147278824202D13B
:101BF00004F58014761C761C307866280BD013DC34
:101C0000582877D009DC002875D04528F6D046281A
:101C1000F4D047281AD193E118E0632835D064281E
:101C200079D0652812D18BE1702873D008DC672841
:101C3000F1D069286FD06E280DD06F2806D1ACE0A6
:101C400073282CD0752874D0782853D05246179911
:101C500090476D1C54E1C4F30250022809D00328B8
:101C60000DD0D8F8001004280DD00D6008F104083C
:101C700046E1D8F80010EA17C1E90052F6E7D8F8B3
:101C800000100D80F2E70D70F0E718F8041B8DF8D6
:101C9000001000208DF80100EB46012003E058F809
:101CA00004BB4FF0FF3061074FF0000102D40DE09C
:101CB00009F101018946B9420FDA8145F8DB1BF8C9
:101CC00009100029F4D108E009F101018946814297
:101CD000FADB1BF809100029F6D103985346A0EB54
:101CE000090721463846179A00F080FA284400EB8D
:101CF000090507E044E008E10DE01BF8010B52463E
:101D000017999047B9F10109F7D253462146384651
:101D1000179AF2E039E00A21C4F302524FF0000BA7
:101D20000091022A06D058F8040BC117032A09D0E3
:101D30000AE023E008F1070020F00702F2E80201C0
:101D4000904605E000B2C117042A01D140B2C11784
:101D5000002906DA0A460021404261EB02012D22E9
:101D600002E0220504D52B228DF80420012203E095
:101D7000E20701D02022F7E7914657E00A2100E070
:101D800010214FF0000B00910BE010214FF0000BE1
:101D900044F004040827009103E008204FF0000BF2
:101DA0000090C4F30252022A05D058F8040B002117
:101DB000032A08D008E008F1070020F00702F2E843
:101DC0000201904603E080B2042A00D1C0B24FF075
:101DD000000922072AD53278702A07D0DDF800C022
:101DE0008CF0100C5CEA0B0C05D00EE040228DF854
:101DF0000420012208E050EA010306D030238DF8C8
:101E000004308DF8052002229146009B83F00803E0
:101E100053EA0B030AD150EA010201D1620705D54A
:101E200030228DF804204FF001097F1E3278582AA5
:101E300004D039A20C920CAA02920BE03BA2F9E763
:101E40005B46009AFEF7C0FB0C9B9B5C029A521EFD
:101E50000292137050EA0102F2D1029804A9081A02
:101E600000F1200B600702D524F4803400E0012744
:101E70005F4502DDA7EB0B0000E0002000EB0B014B
:101E8000009003984944401A0390E00306D4534657
:101E90002146179A039800F0A9F90544002706E0A7
:101EA00001A85246C05D179990476D1C7F1C4F4595
:101EB000F6DBE0030CD553462146179A039800F051
:101EC00095F9054404E030205246179990476D1C5F
:101ED0000099481E00900029F5DC08E0029802995C
:101EE00052460078491C0291179990476D1CBBF12E
:101EF0000001ABF1010BF1DC5BE100F065F9054499
:101F0000761C307800287FF40DAE19B02846BDE865
:101F1000F08F000009280100303132333435363774
:101F20003839616263646566000000003031323325
:101F300034353637383941424344454600000000C5
:101F4000600700D4062708F1070020F00700F0E83A
:101F50000223804603F0004C5FEA0C0001D097A0FA
:101F600009E0200501D596A005E0E00701D095A085
:101F700001E0AFF24C001390307823F00043652865
:101F80000CD006DC452809D046281DD047287FD133
:101F90003BE0662818D067287AD136E00021112F5F
:101FA00001DB112000E0781CCDE9000104A90CA898
:101FB000FFF7EEFCDDE90D010C9A4FF0000B07F185
:101FC0000109109200914EE04FF000400097CDE9DA
:101FD000011004A90CA8FFF7DBFCDDE90D020C9B46
:101FE0000F994FF0000B91461093009211B9791C94
:101FF00000EB0109B7EB090003D4C0F1FF3B07F187
:102000000109A9EB0700019042E0012F00DA012746
:102010000021112F01DD112000E03846CDE900013B
:1020200004A90CA8FFF7B4FCDDE90D010C9A00919E
:102030004FF0000BB946109221070FD4009A4A4581
:1020400003DA914601E0A9F10109B9F1010F05DDBB
:10205000109AA9F10101515C3029F4D0B84202DA9A
:1020600010F1040F03DA0121CDE9011010E000287E
:1020700003DC8344A9EB000102E0411C494500DD7B
:102080008946A0EB0B00401C01904FF000400290ED
:10209000200705D40198484502DB4FF0FF3001903E
:1020A00000208DF84B0002980DF14B07B0F1004F66
:1020B00025D002200C902B200D90029800280CDADD
:1020C000404202902D200D9007E00A210298FEF771
:1020D00065FA3031029007F8011D0C99481E0C90EA
:1020E0000029F2DC02980028EFD1791E0D980870C3
:1020F000307800F0200040F0450007F8020D11A8EC
:10210000C01BC01D02901398007800B1012000EBA5
:102110000901019801EBE071029801440398401A0B
:10212000401E0390E00306D453462146179A0398B5
:1021300000F05CF805441398007818B152461799DE
:1021400090476D1CE00323D553462146179A039808
:1021500000F04CF805441BE0BBF1000F07DB0098D2
:10216000584504DD1098179910F80B0001E01799F5
:1021700030205246904701980BF1010B401E05F1AB
:102180000105019004D12E205246179990476D1CED
:10219000B9F10001A9F10109DEDC05E017F8010B36
:1021A0005246179990476D1C0299481E02900029CB
:1021B000F4DC53462146179A03989EE62D00000052
:1021C0002B000000200000002DE9F041044600250E
:1021D0001E461746880404D405E039462020B0473F
:1021E0006D1C641EF9D52846BDE8F0812DE9F0414B
:1021F000044600251E469046C80301D5302700E05E
:102200002027880404D505E041463846B0476D1CB8
:10221000641EF9D52846BDE8F0810A68531C0B609E
:10222000107070472DE9F041C1F30A52A2F2FF3657
:102230002F4A304B0D460446142E2FDA002E12DAA8
:10224000FDF7B6FF00221346FEF7CCFA4CD2002D64
:10225000BCBF4FF00045002446DB55EA040018BF20
:10226000254D19D140E0DFF894C02CFA06F705EAB5
:10227000070C5CEA040C08BFBDE8F081FDF798FF8D
:1022800000221346FEF7AEFA2ED2002D03DD4FF4E6
:102290008010F0400544BD43002425E0332EC8BF24
:1022A000BDE8F081A6F1140C4FF0FF3727FA0CF7C8
:1022B0003C4208BFBDE8F081FEF71EF8002213463D
:1022C000FEF790FA10D2002D0DDD142E08BF6D1C04
:1022D00009D0C6F13400012101FA00F02044A042E7
:1022E00038BF6D1C0446BC4329462046BDE8F0813A
:1022F0009C7500883CE4377E0000F03FFFFF0F0034
:10230000002100E0491CC2008A42FBD8704700004F
:1023100010B5FFF749FAFEF7E7FD04460CE0FEF7BB
:10232000E3FD021B61F10001642300209A1A884139
:1023300002D24FF0FF3010BD01210E48FEF75CFDC8
:102340000128ECD00DE0FEF7CFFD021B61F100018A
:102350004FF4967300209A1A884102D26FF0010060
:10236000E9E701210348FEF747FD0028EBD00020F4
:10237000E1E700000008014010B5CC2000F0BCF8F7
:10238000BE2000F0B9F810BD08B501210420FFF708
:1023900029F90120ADF8000010208DF8030002207B
:1023A0008DF8020069460248FEF79BFC08BD00005C
:1023B000000801402DE9F84F0120009000F032F8AC
:1023C00000F074F840F2EE20FEF79EFA00F02AF8D2
:1023D000FFF7D2FF00F05CF8824600F059F804469F
:1023E000072C07DD6FEA0A0000F0FF0AE043C4B2E1
:1023F000002000904AEA042B5846FEF766F807468C
:102400000022074BFDF77BFF0546FEF7ABF8814640
:10241000009810B14846BDE8F88F89F00040FAE70F
:102420000000B03F10B5FFF7CDF901210948FEF7D4
:10243000ECFC40F22620FEF779FA01210548FEF770
:10244000E6FC3220FEF772FAFFF762FF04462046F0
:1024500010BD00000008014010B5FFF7B3F90121DD
:102460000A48FEF7D2FC0520FEF760FAFFF79CF958
:102470000A20FEF75BFA01210448FEF7BDFC044682
:102480003220FEF753FA204610BD0000000801403C
:1024900070B50025002405E0FFF7DEFFA0402843CB
:1024A000C5B2641C082CF7DB284670BD10B5CC20E3
:1024B00000F022F8442000F01FF810BD10B50446CB
:1024C000FFF780F901210B48FEF79FFC3CB946203D
:1024D000FEF72CFA01210748FEF799FC09E00520D8
:1024E000FEF724FA01210348FEF791FC3C20FEF799
:1024F0001DFA10BD0008014070B5044600250BE030
:1025000004F0010018B10120FFF7D8FF02E000201D
:10251000FFF7D4FF64106D1C082DF1DB70BD0000C7
:1025200070B504460D46164633462A4621460248F3
:10253000FEF7A4FD70BD000028000020FFF724FF77
:10254000FEF7D8FDFEF718FD1CE0FFF733FF064647
:102550000D48FEF7E2FD142207210B48FEF7EDFFC0
:102560003046FDF7ECFF044622460B4607A106481D
:10257000FEF75AFF0448FEF76CFF4FF4FA70FEF7BF
:10258000C3F900BFE1E700003800002054454D507A
:102590003A20252E32664300F0B50B30154D20F061
:1025A00007010024144A0FE003688B420BD38B42CF
:1025B00005D95E1A43184768C3E9006700E043681D
:1025C000136002C004E0021D10680028ECD1204610
:1025D000002802D1286808B10020F0BD064A07484B
:1025E0001060074A121A22F00702C0E900240120F5
:1025F0002860D7E72400002020000020640000208D
:102600006010002010B502460B464FF0FF34906872
:1026100008B9204610BD002108E09068C06950F854
:102620002100984201D10CB204E0491C9068408B13
:102630008842F2D800BF2046ECE70000008080808E
:1026400080800080A0A0A05050F850F85050207812
:10265000A05008D0C0C81020409818E090A040A812
:102660009068C040802040808080402080402020B2
:102670002040805020F820502020F82020C04080AA
:10268000F8C0C00810204080708898A8C8887040A2
:10269000C040404040E0708808102040F8F810200A
:1026A0001008887010305090F81010F880F008086A
:1026B0008870304080F0888870F8081020404040D2
:1026C0007088887088887070888878081060C0C0AA
:1026D00000C0C0C0C000C04080102040804020101A
:1026E000F800F880402010204080708808102000FA
:1026F0002070880868A8A87070888888F88888F092
:102700008888F08888F070888080808870E0908861
:10271000888890E0F88080F08080F8F88080E08001
:10272000808070888080988870888888F8888888F9
:10273000C04040404040C030101010109060889061
:10274000A0C0A09088808080808080F888D8A888E9
:102750008888888888C8A8988888708888888888A1
:1027600070F08888F080808070888888A89068F0F1
:102770008888F0A09088788080700808F0F8202081
:102780002020202088888888888870888888888881
:102790005020888888A8A8D88888885020508888A1
:1027A00088885020202020F80810204080F8E08001
:1027B00080808080E08040201008E02020202020C1
:1027C000E0205088F880402070087888788080B0B9
:1027D000C88888F070808088700808689888887831
:1027E0007088F88070304840E04040407888780831
:1027F000308080B0C88888884000C0404040E010E9
:10280000003010109060808090A0C0A090C0404028
:10281000404040E0D0A8A88888B0C88888887088E0
:10282000888870F088F08080689878080808B0C8B8
:1028300080808070807008704040E0404048308860
:10284000888888986888888850208888A8A85088B0
:10285000502050888888780870F8102040F8204070
:102860004080404020808080808080808040402068
:1028700040408040A810000020000000210000001F
:1028800022000000230000002400000025000000BA
:10289000260000002700000028000000290000009A
:1028A0002A0000002B0000002C0000002D0000007A
:1028B0002E0000002F00000030000000310000005A
:1028C000320000003300000034000000350000003A
:1028D000360000003700000038000000390000001A
:1028E0003A0000003B0000003C0000003D000000FA
:1028F0003E0000003F0000004000000041000000DA
:1029000042000000430000004400000045000000B9
:102910004600000047000000480000004900000099
:102920004A0000004B0000004C0000004D00000079
:102930004E0000004F000000500000005100000059
:102940005200000053000000540000005500000039
:102950005600000057000000580000005900000019
:102960005A0000005B0000005C0000005D000000F9
:102970005E0000005F0000006000000061000000D9
:1029800062000000630000006400000065000000B9
:102990006600000067000000680000006900000099
:1029A0006A0000006B0000006C0000006D00000079
:1029B0006E0000006F000000700000007100000059
:1029C0007200000073000000740000007500000039
:1029D0007600000077000000780000007900000019
:1029E0007A0000007B0000007C0000007D000000F9
:1029F0007E0000006C3A000820000000E8030000A0
:102A000007000000000000000000000000000000BF
:102A10000000000000000000000000003C2600084C
:102A2000A03A000821000000E803000007000000B1
:102A3000000000000000000000000000010007008E
:102A400003000100070000003D260008D03A0008FE
:102A500022000000E8030000070000000000000062
:102A6000000000000000000003000300020004005A
:102A70000300000044260008003B0008230000007B
:102A8000E803000007000000000000000000000054
:102A90000000000005000700010001000700000021
:102AA00047260008303B000824000000E80300002F
:102AB000070000000000000000000000000000000F
:102AC0000500060001000200060000004E26000876
:102AD000603B000825000000E8030000070000003C
:102AE00000000000000000000000000005000700DA
:102AF000010001000700000054260008903B000878
:102B000026000000E80300000700000000000000AD
:102B100000000000000000000500070001000100A7
:102B2000070000005B260008C03B000827000000EB
:102B3000E8030000070000000000000000000000A3
:102B40000000000002000300020005000300000076
:102B500062260008F03B000828000000E80300009F
:102B6000070000000000000000000000000000005E
:102B700003000700020001000700000065260008AE
:102B80002C3C000829000000E803000007000000BA
:102B9000000000000000000000000000030007002B
:102BA00002000100070000006C2600085C3C0008E1
:102BB0002A000000E80300000700000000000000F9
:102BC00000000000000000000500050001000200F8
:102BD00005000000732600088C3C00082B00000054
:102BE000E8030000070000000000000000000000F3
:102BF00000000000050005000100020005000000C3
:102C000078260008BC3C00082C000000E803000007
:102C100007000000000000000000000000000000AD
:102C20000200030002000100030000007D260008EE
:102C3000EC3C00082D000000E80300000700000045
:102C4000000000000000000000000000050001007E
:102C50000100040001000000802600081C3D00085F
:102C60002E000000E8030000070000000000000044
:102C7000000000000000000002000200020001004D
:102C800002000000812600084C3D00082F000000D3
:102C9000E803000007000000000000000000000042
:102CA0000000000005000500010002000500000012
:102CB00083260008743A000830000000E803000092
:102CC00007000000000000000000000000000000FD
:102CD0000500070001000100070000008826000829
:102CE000A83A000831000000E803000007000000D7
:102CF00000000000000000000000000003000700CA
:102D000002000100070000008F260008D83A0008E2
:102D100032000000E803000007000000000000008F
:102D20000000000000000000050007000100010095
:102D30000700000096260008083B0008330000004A
:102D4000E803000007000000000000000000000091
:102D5000000000000500070001000100070000005E
:102D60009D260008383B000834000000E8030000FE
:102D7000070000000000000000000000000000004C
:102D8000050007000100010007000000A42600085C
:102D9000683B000835000000E80300000700000061
:102DA0000000000000000000000000000500070017
:102DB0000100010007000000AB260008983B000856
:102DC00036000000E80300000700000000000000DB
:102DD00000000000000000000500070001000100E5
:102DE00007000000B2260008C83B000837000000BA
:102DF000E8030000070000000000000000000000E1
:102E000000000000050007000100010007000000AD
:102E1000B9260008F83B000838000000E80300006D
:102E2000070000000000000000000000000000009B
:102E3000050007000100010007000000C02600088F
:102E4000343C000839000000E803000007000000DF
:102E50000000000000000000000000000500070066
:102E60000100010007000000C7260008643C0008BC
:102E70003A000000E8030000070000000000000026
:102E80000000000000000000020005000200020037
:102E900005000000CE260008943C00083B0000001E
:102EA000E803000007000000000000000000000030
:102EB0000000000002000600020001000600000001
:102EC000D3260008C43C00083C000000E8030000D2
:102ED00007000000000000000000000000000000EB
:102EE000040007000200010007000000D9260008C6
:102EF000F43C00083D000000E8030000070000006B
:102F000000000000000000000000000005000300B9
:102F10000100030003000000E0260008243D000833
:102F20003E000000E8030000070000000000000071
:102F30000000000000000000040007000100010084
:102F400007000000E3260008543D00083F00000091
:102F5000E80300000700000000000000000000007F
:102F6000000000000500070001000100070000004C
:102F7000EA2600087C3A000840000000E803000050
:102F8000070000000000000000000000000000003A
:102F9000050007000100010007000000F1260008FD
:102FA000B03A000841000000E803000007000000FC
:102FB0000000000000000000000000000500070005
:102FC0000100010007000000F8260008E03A0008B0
:102FD00042000000E80300000700000000000000BD
:102FE00000000000000000000500070001000100D3
:102FF00007000000FF260008103B00084300000007
:10300000E8030000070000000000000000000000CE
:10301000000000000500070001000100070000009B
:1030200006270008403B000844000000E8030000B9
:103030000700000000000000000000000000000089
:103040000500070001000100070000000D2700082F
:10305000703B000845000000E80300000700000086
:103060000000000000000000000000000500070054
:10307000010001000700000014270008A03B000821
:1030800046000000E8030000070000000000000008
:103090000000000000000000050007000100010022
:1030A000070000001B270008D03B00084700000075
:1030B000E80300000700000000000000000000001E
:1030C00000000000050007000100010007000000EB
:1030D00022270008003C000848000000E803000028
:1030E00007000000000000000000000000000000D9
:1030F0000500070001000100070000002927000863
:103100003C3C000849000000E80300000700000004
:1031100000000000000000000000000003000700A5
:103120000200010007000000302700086C3C000886
:103130004A000000E8030000070000000000000053
:103140000000000000000000050007000100010071
:1031500007000000372700089C3C00084B000000D7
:10316000E80300000700000000000000000000006D
:10317000000000000500070001000100070000003A
:103180003E270008CC3C00084C000000E80300008B
:103190000700000000000000000000000000000028
:1031A0000500070001000100070000004527000896
:1031B000FC3C00084D000000E80300000700000090
:1031C00000000000000000000000000005000700F3
:1031D00001000100070000004C2700082C3D0008FA
:1031E0004E000000E803000007000000000000009F
:1031F00000000000000000000500070001000100C1
:1032000007000000532700085C3D00084F00000045
:10321000E8030000070000000000000000000000BC
:103220000000000005000700010001000700000089
:103230005A270008843A000850000000E803000004
:103240000700000000000000000000000000000077
:1032500005000700010001000700000061270008C9
:10326000B83A000851000000E80300000700000021
:103270000000000000000000000000000500070042
:10328000010001000700000068270008E83A000874
:1032900052000000E80300000700000000000000EA
:1032A0000000000000000000050007000100010010
:1032B000070000006F270008183B000853000000BB
:1032C000E80300000700000000000000000000000C
:1032D00000000000050007000100010007000000D9
:1032E00076270008483B000854000000E80300006F
:1032F00007000000000000000000000000000000C7
:103300000500070001000100070000007D270008FC
:10331000783B000855000000E803000007000000AB
:103320000000000000000000000000000500070091
:10333000010001000700000084270008A83B0008E6
:1033400056000000E8030000070000000000000035
:10335000000000000000000005000700010001005F
:10336000070000008B270008D83B0008570000002A
:10337000E80300000700000000000000000000005B
:103380000000000005000700010001000700000028
:1033900092270008083C000858000000E8030000DD
:1033A0000700000000000000000000000000000016
:1033B0000500070001000100070000009927000830
:1033C000443C000859000000E8030000070000002A
:1033D00000000000000000000000000005000700E1
:1033E0000100010007000000A0270008743C00084D
:1033F0005A000000E8030000070000000000000081
:1034000000000000000000000500070001000100AE
:1034100007000000A7270008A43C00085B0000008C
:10342000E8030000070000000000000000000000AA
:103430000000000003000700020001000700000078
:10344000AE270008D43C00085C000000E803000040
:103450000700000000000000000000000000000065
:10346000050005000100020005000000B527000866
:10347000043D00085D000000E803000007000000B4
:103480000000000000000000000000000300070032
:103490000200010007000000BA270008343D0008C0
:1034A0005E000000E80300000700000000000000CC
:1034B00000000000000000000500030001000500FE
:1034C00003000000C1270008643D00085F00000001
:1034D000E8030000070000000000000000000000FA
:1034E00000000000050001000100010001000000D3
:1034F000C42700088C3A000860000000E8030000C0
:1035000007000000000000000000000000000000B4
:10351000030003000200050003000000C5270008A7
:10352000C03A000861000000E80300000700000046
:103530000000000000000000000000000500050081
:103540000100010005000000C8270008F03A00084B
:1035500062000000E8030000070000000000000017
:10356000000000000000000005000700010001004D
:1035700007000000CD270008203B00086300000082
:10358000E803000007000000000000000000000049
:10359000000000000500050001000100050000001A
:1035A000D4270008503B000864000000E803000036
:1035B0000700000000000000000000000000000004
:1035C000050007000100010007000000D9270008DE
:1035D000803B000865000000E803000007000000D1
:1035E00000000000000000000000000005000500D1
:1035F0000100010005000000E0270008B03B0008C2
:1036000066000000E8030000070000000000000062
:10361000000000000000000005000700010001009C
:1036200007000000E5270008E03B000867000000F5
:10363000E803000007000000000000000000000098
:103640000000000005000500010001000500000069
:10365000EC270008103C000868000000E8030000A8
:103660000700000000000000000000000000000053
:10367000050007000100010007000000F127000815
:103680004C3C000869000000E8030000070000004F
:103690000000000000000000000000000300070020
:1036A0000200010007000000F82700087C3C000829
:1036B0006A000000E80300000700000000000000AE
:1036C00000000000000000000400070001000100ED
:1036D00007000000FF270008AC3C00086B0000005A
:1036E000E8030000070000000000000000000000E8
:1036F00000000000040007000200010007000000B5
:1037000006280008DC3C00086C000000E80300000C
:1037100007000000000000000000000000000000A2
:103720000300070002000100070000000D28000848
:103730000C3D00086D000000E803000007000000D9
:10374000000000000000000000000000050005006F
:103750000100010005000000142800083C3D00089D
:103760006E000000E80300000700000000000000F9
:10377000000000000000000005000500010001003D
:1037800005000000192800086C3D00086F000000CB
:10379000E803000007000000000000000000000037
:1037A0000000000005000500010001000500000008
:1037B0001E280008943A000870000000E80300008A
:1037C00007000000000000000000000000000000F2
:1037D0000500050001000100050000002328000885
:1037E000C83A000871000000E8030000070000006C
:1037F00000000000000000000000000005000600BE
:10380000010001000600000028280008F83A00081E
:1038100072000000E8030000070000000000000044
:10382000000000000000000005000500010001008C
:10383000050000002E280008283B00087300000047
:10384000E803000007000000000000000000000086
:103850000000000005000500010001000500000057
:1038600033280008583B000874000000E8030000FB
:103870000700000000000000000000000000000041
:1038800005000700010001000700000038280008BB
:10389000883B000875000000E803000007000000F6
:1038A000000000000000000000000000050006000D
:1038B00001000100060000003F280008B83B000896
:1038C00076000000E8030000070000000000000090
:1038D00000000000000000000500050001000100DC
:1038E0000500000045280008E83B000877000000BC
:1038F000E8030000070000000000000000000000D6
:1039000000000000050005000100010005000000A6
:103910004A280008183C000878000000E80300006E
:103920000700000000000000000000000000000090
:103930000500050001000100050000004F280008F7
:10394000543C000879000000E80300000700000074
:10395000000000000000000000000000050005005D
:10396000010001000500000054280008843C000804
:103970007A000000E80300000700000000000000DB
:10398000000000000000000005000500010001002B
:103990000500000059280008B43C00087B00000026
:1039A000E803000007000000000000000000000025
:1039B00000000000030007000200010007000000F3
:1039C0005E280008E43C00087C000000E8030000DA
:1039D00007000000000000000000000000000000E0
:1039E000010007000300010007000000652800082F
:1039F000143D00087D000000E803000007000000FF
:103A000000000000000000000000000003000700AC
:103A100002000100070000006C280008443D000877
:103A20007E000000E8030000070000000000000026
:103A30000000000000000000050003000100050078
:103A400003000000732800089C3A0008203C00088E
:103A500000000000080048004800070008000000BF
:103A600000005F0078280008F42900083030323068
:103A700000000000303033300000000030303430BF
:103A800000000000303035300000000030303630AB
:103A9000000000003030373000000000322E3100CE
:103AA000303032310000000030303331000000008F
:103AB000303034310000000030303531000000007B
:103AC0003030363100000000303037310000000067
:103AD000303032320000000030303332000000005D
:103AE0003030343200000000303035320000000049
:103AF0003030363200000000303037320000000035
:103B0000303032330000000030303333000000002A
:103B10003030343300000000303035330000000016
:103B20003030363300000000303037330000000002
:103B300030303234000000003030333400000000F8
:103B400030303434000000003030353400000000E4
:103B500030303634000000003030373400000000D0
:103B600030303235000000003030333500000000C6
:103B700030303435000000003030353500000000B2
:103B8000303036350000000030303735000000009E
:103B90003030323600000000303033360000000094
:103BA0003030343600000000303035360000000080
:103BB000303036360000000030303736000000006C
:103BC0003030323700000000303033370000000062
:103BD000303034370000000030303537000000004E
:103BE000303036370000000030303737000000003A
:103BF0003030323800000000303033380000000030
:103C0000303034380000000030303538000000001B
:103C10003030363800000000303037380000000007
:103C20004D6174726978203578380000303032394F
:103C300000000000303033390000000030303439EB
:103C400000000000303035390000000030303639D7
:103C500000000000303037390000000030303241C1
:103C600000000000303033410000000030303441AB
:103C70000000000030303541000000003030364197
:103C80000000000030303741000000003030324288
:103C90000000000030303342000000003030344279
:103CA0000000000030303542000000003030364265
:103CB0000000000030303742000000003030324356
:103CC0000000000030303343000000003030344347
:103CD0000000000030303543000000003030364333
:103CE0000000000030303743000000003030324424
:103CF0000000000030303344000000003030344415
:103D00000000000030303544000000003030364400
:103D100000000000303037440000000030303245F1
:103D200000000000303033450000000030303445E2
:103D300000000000303035450000000030303645CE
:103D400000000000303037450000000030303246BF
:103D500000000000303033460000000030303446B0
:103D6000000000003030354600000000303036469C
:103D700000000000943D0008000000202800000022
:103D800070190008BC3D0008280000203820000001
:103D9000801900080000000001020304010203046E
:103DA00006070809020406080000000000000000E1
:0C3DB00000000000000000000000000007
:04000005080000ED02
:00000001FF
