:020000040800F2
:100000006010002005010008CD0B00089D0A0008C3
:10001000A10A000879070008950F000800000000F9
:10002000000000000000000000000000330E000887
:100030007D07000800000000AF0C00081D0F00083D
:100040001F0100081F0100081F0100081F01000810
:100050001F0100081F0100081F0100081F01000800
:100060001F0100081F0100081F0100081F010008F0
:100070001F0100081F0100081F0100081F010008E0
:100080001F0100081F0100081F0100081F010008D0
:100090001F0100081F0100081F0100081F010008C0
:1000A0001F0100081F0100081F0100081F010008B0
:1000B0001F0100081F0100081F0100081F010008A0
:1000C0001F0100081F0100081F0100081F01000890
:1000D0001F0100081F0100081F0100081F01000880
:1000E0001F0100081F0100081F010008DFF810D0E1
:1000F00000F078F900480047F50F0008AFF30080E2
:10010000601000200648804706480047FEE7FEE7EB
:10011000FEE7FEE7FEE7FEE7FEE7FEE7FEE7FEE7B7
:10012000350F0008ED000008D2B201E000F8012B05
:10013000491EFBD270470022F6E710B513460A4667
:1001400004461946FFF7F0FF204610BD2DE9F04D9B
:1001500081EA030404F0004B21F0004514464FF0FF
:10016000000A23F0004150EA050220D054EA0102BF
:100170001DD0C5F30A570246C5F31303C1F313009C
:10018000C1F30A5640F4801543F48013A7EB060828
:10019000101BD64608F2FD3873EB050002D308F1B8
:1001A000010801E092185B41B8F1000F03DA00206A
:1001B0000146BDE8F08D00204FF4801106468446CC
:1001C0000EE0171B73EB050705D3121B63EB05034A
:1001D00006434CEA010C49084FEA300092185B4193
:1001E00050EA0107EDD152EA030012D082EA04007E
:1001F00083EA0501084305D0101BAB4106D201225A
:10020000002306E000224FF0004302E06FF00102FD
:1002100053101AEB06004CEB085110EB0A0041EBAF
:100220000B01BDE8F04D00F07FB80EB540F2334150
:1002300002910021CDE900110A460B4600F083F837
:1002400003B000BD01F0004330B421F0004150EA9A
:10025000010206D00A0DA2F56072C1F31301002A53
:1002600002DC30BC00207047440F44EAC104C100E6
:10027000E01830BC00EBC25000F01FB8202A04DBAD
:10028000203A00FA02F1002070479140C2F12003A9
:1002900020FA03F3194390407047202A04DB203AE8
:1002A00021FA02F00021704721FA02F3D040C2F196
:1002B000200291400843194670470029A8BF7047A3
:1002C000401C490008BF20F00100704710B4B0FA8C
:1002D00080FC00FA0CF050EA010404BF10BC704727
:1002E00049B1CCF1200421FA04F411FA0CF118BF41
:1002F000012121430843A3EB0C01CB1D4FEA006110
:100300004FEA102042BF002010BC704700EBC350E2
:1003100010440029A4BF10BC7047401C490008BF0E
:1003200020F0010010BC704710B5141E73F10004DA
:1003300008DA401C41F1000192185B411A4301D1D7
:1003400020F0010010BD2DE9F04D92469B4611B101
:10035000B1FA81F202E0B0FA80F220329046FFF763
:100360008DFF04460F4640EA0A0041EA0B0153465E
:100370005A46084313D0114653EA010019D0C8F178
:1003800040025046FFF789FF05460E465046594643
:100390004246FFF773FF084305D0012004E02046E2
:1003A0003946BDE8F08D0020054346EAE0762C434F
:1003B00037430A986305E40AA0EB08000022FD0A0F
:1003C00044EA47540A3002D500200146E9E7010516
:1003D00010196941DDE9084500196941BDE8F04D92
:1003E000A2E70000064C074D06E0E06840F001037C
:1003F00094E8070098471034AC42F6D3FFF77AFE32
:10040000341000085410000800B589B00A48009064
:100410000120ADF8040000200890079006900748DE
:10042000049000200590029003906946044800F073
:1004300039FB09B000BD000000080140B90F0008F9
:100440002000002000B587B00121084600F030FCF4
:100450000121084600F0BAFA0121344800F0B6FA4A
:10046000002006900121082000F022FC0820ADF8B1
:10047000180018208DF81B0002208DF81A0006A91C
:100480002B4800F017FA1020ADF8180048208DF81E
:100490001B0006A9264800F00DFA2020ADF8180030
:1004A00018208DF81B0002208DF81A0006A920489C
:1004B00000F000FA0121042000F0FAFB4FF40040A4
:1004C000ADF8180010208DF81B0002208DF81A00DE
:1004D00006A9184800F0EEF90122D103154800F0F2
:1004E000CFFA0121080300F0E3FB4FF48270ADF86E
:1004F00006000020ADF80400ADF80800ADF80A00D1
:10050000ADF80C00ADF812002820ADF810004FF443
:100510000070ADF80E0001A9074800F05DFC4FF433
:100520008071054800F076FC07B000BD0002300085
:10053000000C014000080140003001402DE9F0416D
:1005400080460D4616461F460121404600F02AFC13
:100550002978404600F03EFC002417E000BF01214E
:10056000404600F02BFC0028F9D0404600F02FFC5C
:10057000305500BF0221404600F020FC0028F9D091
:10058000601C295C404600F025FC641C781EA042DB
:10059000E4D800BF0121404600F010FC0028F9D04B
:1005A000404600F014FCC1B2781E31540021404690
:1005B00000F0F8FBBDE8F0810EB500224FF40041D9
:1005C000114800F05DFA03208DF8000000208DF83E
:1005D00001008DF802008DF8030004236A46694685
:1005E0000A48FFF7ABFFFF208DF8000001236A46A1
:1005F00069460648FFF7A2FF0122D103024800F036
:100600003FFA9DF800000EBD000801400030014097
:100610003EB5044606208DF8000000224FF400414C
:10062000534800F02DFA01236A4669465148FFF706
:1006300085FF0122D1034E4800F022FA00224FF438
:1006400000414B4800F01CFA20208DF800000020EB
:100650008DF801008DF802008DF8030004236A462E
:1006600069464448FFF76AFF0122D103404800F081
:1006700007FA22E000224FF400413D4800F000FA62
:1006800005208DF8000001236A4669463948FFF7C6
:1006900055FFFF208DF8000001236A466946354862
:1006A000FFF74CFF0122D103314800F0E9F99DF832
:1006B000000000F0010000B900E0DBE700BF062009
:1006C0008DF8000000224FF40041294800F0D8F9CD
:1006D00001236A4669462748FFF730FF0122D1030C
:1006E000234800F0CDF900224FF40041204800F0EB
:1006F000C7F902208DF8000000208DF801008DF868
:1007000002008DF803008DF8044005236A4669460F
:100710001848FFF713FF0122D103154800F0B0F984
:1007200022E000224FF40041114800F0A9F9052011
:100730008DF8000001236A4669460E48FFF7FEFE69
:10074000FF208DF8000001236A4669460948FFF73B
:10075000F5FE0122D103064800F092F99DF8000051
:1007600000F0010000B900E0DBE700BF3EBD000083
:10077000000801400030014000BFFEE77047000064
:100780002DE9F04186B02E480078002855D101208F
:100790002B490870142101A8FFF7CDFC4FF0E02091
:1007A000006920F001004FF0E02108610020254998
:1007B000086001A800F08CFA4FF0E020006940F0DA
:1007C00002004FF0E021086100211F48C1774FF47B
:1007D0007A710298B0FBF1F4B4F1807F09D3E40898
:1007E0004FF0E020006920F004004FF0E0210861A4
:1007F00007E04FF0E020006940F004004FF0E021F6
:100800000861601E4FF0E02148610846006940F031
:1008100001000861496921F07F41481CFFF705FD8F
:1008200007463A460B4600200849FFF78FFC05466D
:10083000FFF708FD0649086000BF06B0BDE8F0817B
:10084000180000201400002000ED00E000408F4060
:100850001C00002070B504460D460DB1012000E0DB
:10086000002006460F48844204D13146042000F09F
:100870001FFA16E00C48844204D13146082000F0EB
:1008800017FA0EE00948844204D13146102000F0E6
:100890000FFA06E00648844203D13146202000F0DA
:1008A00007FA70BD00080140000C01400010014033
:1008B000001401402DE9F0410246002500260020E9
:1008C00000230024002791F803C00CF00F0591F8D5
:1008D00003C00CF0100CBCF1000F03D091F802C063
:1008E0004CEA050591F800C0BCF1000F31D0146846
:1008F00000202BE04FF0010C0CFA00F3B1F800C01F
:100900000CEA03069E4220D183004FF00F0C0CFA34
:1009100003F7BC4305FA03FC4CEA040491F803C056
:10092000BCF1280F06D14FF0010C0CFA00FCC2F804
:1009300014C00AE091F803C0BCF1480F05D14FF094
:10094000010C0CFA00FCC2F810C0401C0828D1D3DE
:100950001460B1F800C0BCF1FF0F34DD5468002012
:100960002EE000F1080C4FF0010808FA0CF3B1F882
:1009700000C00CEA03069E4221D183004FF00F0C09
:100980000CFA03F7BC4305FA03FC4CEA040491F8A3
:1009900003C0BCF1280F05D100F1080C08FA0CF8CF
:1009A000C2F8148091F803C0BCF1480F07D100F1E0
:1009B000080C4FF0010808FA0CF8C2F81080401C2F
:1009C0000828CED35460BDE8F0810000F0B50A4697
:1009D000002300240021002500F00046B6F1004F5E
:1009E00002D11D4EF16901E01B4E7168C0F3034551
:1009F00083B200F44016B6F5401F08D121F07061B3
:100A0000154E766826F07066134F7E6012E000F493
:100A10008016B6F5801F06D1032606FA05F4A14319
:100A200041F0706106E0460D360103FA06F6B14367
:100A300041F0706122B1460D360103FA06F63143EA
:100A400000F00046B6F1004F02D1034EF16101E023
:100A5000014E7160F0BD0000000001400246002020
:100A600093680B400BB1012000E000207047024664
:100A70000020D3680B400BB1012000E0002070473C
:100A80000AB1016100E041617047000010B5FFF755
:100A900077FE0148006810BD1400002000BFFEE78B
:100AA00000BFFEE738B504460D4628682060A888D8
:100AB000A080A868A060E868E06028692061686993
:100AC0006061A869A061286A2062E869E06101218B
:100AD0002068FFF7BFFEA088ADF8000048208DF821
:100AE000030069462068FFF7E5FEA06910B94FF4DE
:100AF0007A70A061E06908B96420E061206A08B9F1
:100B0000C8202062002004F8240F60706060A0609C
:100B1000E06020742076243C38BD70B50446FFF7B1
:100B2000B5FF064694F82500F8B1A06A0A30B04235
:100B30002CD8A1882068FFF791FF08B9012000E0B8
:100B40000020054694F82400A84208D0012D03D1C6
:100B5000204600F086F802E0204600F08CF884F889
:100B60002450002084F8250010E0A1882068FFF7B9
:100B700075FF08B9012000E00020054694F8240024
:100B8000A84203D0A662012084F8250094F824101E
:100B90003246204600F01BF870BD000008B500206A
:100BA00000900121102000F083F84FF40050ADF8C0
:100BB000000014208DF8030003208DF80200694620
:100BC0000148FFF777FE08BD00100140704770B57F
:100BD00004460E46154694F82400012829D194F8BD
:100BE000340098B9E06A20B3E06A281AA169884203
:100BF0001FD9012084F83400606918B194F83400DA
:100C000061698847FFF742FFA06312E0A06B281AD2
:100C1000E16988420DD9FFF739FFA06394F83400E9
:100C2000401C84F83400606918B194F8340061699C
:100C3000884794F83C00002812DD94F8240078B925
:100C4000FFF724FF216B401A216A884208D92069E6
:100C500018B194F83C0021698847002084F83C00D2
:100C600070BD10B50446FFF711FFE062A06808B13F
:100C7000A068804710BD10B50446FFF707FF20634A
:100C8000E06808B1E0688047002084F83400D4E9C7
:100C90000B10401AA169884205D294F83C00401C10
:100CA00084F83C0002E0002084F83C0010BD70474E
:100CB00029B1064A92690243044B9A6104E0034A4F
:100CC00092698243014B9A61704700000010024014
:100CD00030B500210022002400232D4D6D6805F061
:100CE0000C0121B1042905D0082923D105E0294DA3
:100CF000056022E0274D05601FE0254D6D6805F475
:100D00007012234D6D6805F48034022505EB924284
:100D10001CB9214D554305600BE01D4D6D6805F470
:100D200000351DB11C4D5543056002E0194D55437A
:100D3000056002E0174D056000BF00BF144D6D68EF
:100D400005F0F0010909154D6B5C0568DD40456053
:100D50000F4D6D6805F4E061090A104D6B5C456844
:100D6000DD4085600A4D6D6805F46051C90A0B4D80
:100D70006B5C4568DD40C560054D6D6805F440411C
:100D8000890B074D6B5CC568B5FBF3F5056130BD9C
:100D90000010024000127A0000093D00000000200F
:100DA0001000002021B1028842F04002028004E0DD
:100DB00002884FF6BF731A40028070470246002037
:100DC00013890B400BB1012000E000207047014661
:100DD000888970478181704710B50022028802F42B
:100DE00041520B884C8823438C882343CC8823436F
:100DF0000C8923434C8923438C892343CC89234387
:100E00001A430280838B4FF2FF74234083830B8A43
:100E1000038210BD4FF6FF62914204D0028842F473
:100E20008072028004E002884FF6FF631A4002805D
:100E30007047704710B500F001F810BD0CB50020E8
:100E4000019000903348006840F4803031490860D8
:100E500000BF3048006800F4003000900198401C4A
:100E60000190009818B90198B0F5A06FF1D1294808
:100E7000006800F4003010B10120009001E0002073
:100E800000900098012843D12348006840F01000EA
:100E9000214908600846006820F0070008600846FD
:100EA000006840F0020008601A484068194948602C
:100EB0000846406848600846406840F480604860E2
:100EC0000846406820F47C1048600846406840F4BA
:100ED000E81048600846006840F08070086000BF75
:100EE0000C48006800F000700028F9D009484068FC
:100EF00020F00300074948600846406840F00200BF
:100F0000486000BF0348406800F00C000828F9D191
:100F10000CBD00000010024000200240044803689D
:100F200040685A1C40F1000001490A60486070475F
:100F30001400002010B51348006840F0010011496A
:100F4000086008464068104908400E494860084655
:100F500000680E4908400B4908600846006820F404
:100F6000802008600846406820F4FE0048604FF486
:100F70001F008860FFF75EFF4FF0006004490860C3
:100F800010BD0000001002400000FFF8FFFFF6FE59
:100F900008ED00E000BFFEE702E008C8121F08C12C
:100FA000002AFAD170477047002001E001C1121FEA
:100FB000002AFBD17047000010B50446012C16D161
:100FC00041030B48FFF753FD012808D100224103DC
:100FD0000748FFF755FD0120FFF71AFB07E0012244
:100FE00051030348FFF74CFD0020FFF711FB10BD34
:100FF00000100140FFF726FAFFF7D0FDFFF7DCFAFB
:1010000004462CB9012251030848FFF739FD05E0D9
:1010100000224FF400510548FFF732FDFFF7F4F9C5
:1010200002E00348FFF779FDFBE7000000100140F4
:1010300020000020541000080000002020000000C4
:10104000980F0008741000082000002040100000D5
:10105000A80F0008000000000102030401020304BD
:10106000060708090204060800000000000000004E
:04107000000000007C
:04000005080000ED02
:00000001FF
