:020000040800F2
:10000000101000200501000825030008EB0200087D
:10001000EF020008C50100086906000800000000A2
:10002000000000000000000000000000F1030008D4
:10003000C901000800000000AD030008DD0400084D
:100040001F0100081F0100081F0100081F01000810
:100050001F0100081F0100081F0100081F01000800
:100060001F0100081F0100081F0100081F010008F0
:100070001F0100081F0100081F0100081F010008E0
:100080001F0100081F0100081F0100081F010008D0
:100090001F0100081F0100081F0100081F010008C0
:1000A0001F0100081F0100081F0100081F010008B0
:1000B0001F010008550500081F0100081F01000866
:1000C0001F0100081F0100081F0100081F01000890
:1000D0001F0100081F0100081F0100081F01000880
:1000E0001F0100081F0100081F010008DFF810D0E1
:1000F00000F01AF8004800478D060008AFF30080B2
:10010000101000200648804706480047FEE7FEE73B
:10011000FEE7FEE7FEE7FEE7FEE7FEE7FEE7FEE7B7
:10012000F5040008ED000008064C074D06E0E06805
:1001300040F0010394E8070098471034AC42F6D32E
:10014000FFF7D8FF1407000834070008044A1268B4
:10015000111800BF024A12688A42FBD370470000A0
:10016000000000201FB50121022000F021F94720E6
:10017000ADF8040040F2E730ADF808000020ADF81B
:1001800006008DF80C0001A90D4800F01BFA0121B2
:100190000B4800F0F8F901221146094800F008FA6E
:1001A0001D208DF8000000208DF801008DF8020060
:1001B00001208DF80300684600F0B6F81FBD00006E
:1001C0000004004000BFFEE770472DE9F041024601
:1001D00000250026002000230024002791F803C0FA
:1001E0000CF00F0591F803C00CF0100CBCF1000FDF
:1001F00003D091F802C04CEA050591F800C0BCF1AB
:10020000000F31D0146800202BE04FF0010C0CFAE5
:1002100000F3B1F800C00CEA03069E4220D183002F
:100220004FF00F0C0CFA03F7BC4305FA03FC4CEA41
:10023000040491F803C0BCF1280F06D14FF0010C63
:100240000CFA00FCC2F814C00AE091F803C0BCF13B
:10025000480F05D14FF0010C0CFA00FCC2F810C099
:10026000401C0828D1D31460B1F800C0BCF1FF0FC6
:1002700034DD546800202EE000F1080C4FF0010836
:1002800008FA0CF3B1F800C00CEA03069E4221D133
:1002900083004FF00F0C0CFA03F7BC4305FA03FC84
:1002A0004CEA040491F803C0BCF1280F05D100F119
:1002B000080C08FA0CF8C2F8148091F803C0BCF1DD
:1002C000480F07D100F1080C4FF0010808FA0CF8AC
:1002D000C2F81080401C0828CED35460BDE8F081DD
:1002E0000AB1016100E04161704700BFFEE700BF55
:1002F000FEE7000008B5002000900121102000F06A
:1003000067F84FF40050ADF8000014208DF803009A
:1003100003208DF8020069460148FFF756FF08BD2B
:10032000001001407047000070B5002100230F222B
:10033000C47804B3154C246804F4E064C4F5E064A4
:10034000210AC1F10403CA40447804FA03F1847815
:100350001440214309010E4C0678A155047804F09D
:100360001F050124AC4005786D11AD0005F1E025B5
:10037000C5F8004109E0047804F01F050124AC40F1
:10038000044D0678761145F8264070BD0CED00E06E
:1003900000E400E080E100E002490143024A11600C
:1003A000704700000000FA050CED00E07047000007
:1003B00029B1064AD2690243044BDA6104E0034AD8
:1003C000D2698243014BDA6170470000001002409D
:1003D00029B1064A92690243044B9A6104E0034A38
:1003E00092698243014B9A617047000000100240FD
:1003F000704710B500F002F810BD00000CB50020E9
:10040000019000903348006840F480303149086022
:1004100000BF3048006800F4003000900198401C94
:100420000190009818B90198B0F5A06FF1D1294852
:10043000006800F4003010B10120009001E00020BD
:1004400000900098012843D12348006840F0100034
:10045000214908600846006820F007000860084647
:10046000006840F0020008601A4840681949486076
:100470000846406848600846406840F4806048602C
:100480000846406820F47C1048600846406840F404
:10049000E81048600846006840F08070086000BFBF
:1004A0000C48006800F000700028F9D00948406846
:1004B00020F00300074948600846406840F0020009
:1004C000486000BF0348406800F00C000828F9D1DC
:1004D0000CBD0000001002400020024004480368E8
:1004E00040685A1C40F1000001490A6048607047AA
:1004F0000400002010B51348006840F001001149C5
:10050000086008464068104908400E49486008469F
:1005100000680E4908400B4908600846006820F44E
:10052000802008600846406820F4FE0048604FF4D0
:100530001F008860FFF75DFF4FF00060044908600E
:1005400010BD0000001002400000FFF8FFFFF6FEA3
:1005500008ED00E010B50121074800F020F801285F
:1005600008D10121044800F00BF804480068401C41
:100570000249086010BD0000000400400000002097
:10058000CA430282704721B1028842F00102028010
:1005900004E002884FF6FE731A400280704702465C
:1005A0000020138A0B400BB1012000E000207047AF
:1005B0001AB183890B43838102E083898B43838152
:1005C00070470000002202881D4B98420ED01D4B40
:1005D00098420BD0B0F1804F08D01B4B984205D009
:1005E0001A4B984202D01A4B984204D14FF68F739F
:1005F0001A404B881A43174B984207D0164B984223
:1006000004D04FF6FF431A40CB881A4302808B88F0
:1006100083850B8803850A4B98420BD0094B98427F
:1006200008D00E4B984205D00D4B984202D00D4B8E
:10063000984201D10B7A0386012383827047000020
:10064000002C01400034014000040040000800403C
:10065000000C004000100040001400400040014029
:10066000004401400048014000BFFEE702E008C826
:10067000121F08C1002AFAD170477047002001E01C
:1006800001C1121F002AFBD1704700004FF4A06087
:10069000FFF782FEFFF766FDFFF72CFE36E0002233
:1006A0004FF400511A48FFF71BFE3220FFF74EFDB2
:1006B000012251031648FFF713FE4FF4FA70FFF7BB
:1006C00045FD00224FF400511148FFF709FE32208A
:1006D000FFF73CFD012251030D48FFF701FE4FF4E7
:1006E000FA70FFF733FD00224FF400510848FFF77E
:1006F000F7FD4FF4FA70FFF729FD0122510304487A
:10070000FFF7EEFD4FF4FA70FFF720FDC7E700009A
:100710000010014034070008000000201000000015
:100720006C060008440700081000002000100000BC
:100730007C0600080000000000000000000000002F
:0407400000000000B5
:04000005080000ED02
:00000001FF
