:020000040800F2
:100000001010002005010008FD050008C3050008C8
:10001000C70500089D0400089D07000800000000B7
:100020000000000000000000000000003906000889
:10003000A104000800000000FF05000825070008D3
:100040001F0100081F0100081F0100081F01000810
:100050001F0100081F0100081F0100081F01000800
:100060001F0100081F0100081F0100081F010008F0
:100070001F0100081F0100081F0100081F010008E0
:100080001F0100081F0100081F0100081F010008D0
:100090001F0100081F0100081F0100081F010008C0
:1000A0001F0100081F0100081F0100081F010008B0
:1000B0001F0100081F0100081F0100081F010008A0
:1000C0001F0100081F0100081F0100081F01000890
:1000D0001F0100081F0100081F0100081F01000880
:1000E0001F0100081F0100081F010008DFF810D0E1
:1000F00000F0C6F800480047C1070008AFF30080D1
:10010000101000200648804706480047FEE7FEE73B
:10011000FEE7FEE7FEE7FEE7FEE7FEE7FEE7FEE7B7
:100120003D070008ED000008D2B201E000F8012B05
:10013000491EFBD270470022F6E710B513460A4667
:1001400004461946FFF7F0FF204610BD80EA010281
:1001500010B502F00043400022D04A001FD0010E2B
:1001600001EB1261C0F35600C2F3560240F40000E6
:1001700042F40002A0FB022000047F39140400D0E6
:10018000401C50EA124001D44000491EC2B20C0685
:1001900004EBD010401C4008802A02D003E000206D
:1001A00010BD20F00100002900DA0020184310BD26
:1001B00096230022114600F034B800F0004230F0DF
:1001C00000400AD0C10D01F56071C0F3160042EA8B
:1001D0000151C20840071143704700200146704793
:1001E00030B5041E71F1000404DB4FF000444042BE
:1001F00064EB0101141E73F1000405DB1C464FF093
:100200000043524263EB0403994208BF904230BD61
:100210000029A8BF7047401C490008BF20F001001A
:10022000704710B4B0FA80FC00FA0CF050EA0104F8
:1002300004BF10BC704749B1CCF1200421FA04F48A
:1002400011FA0CF118BF012121430843A3EB0C0163
:10025000CB1D4FEA00614FEA102042BF002010BCC6
:10026000704700EBC35010440029A4BF10BC704776
:10027000401C490008BF20F0010010BC704700007E
:10028000064C074D06E0E06840F0010394E80700E3
:1002900098471034AC42F6D3FFF72CFF4008000813
:1002A00060080008CA430260704721B1826842F0CA
:1002B0000102826003E0826822F0010282607047DE
:1002C00021B1826842F48012826003E0826822F4E5
:1002D0008012826070470146C86C80B27047024647
:1002E000002013680B400BB1012000E00020704794
:1002F00030B502460020002350680F4C20400D7995
:100300000C6844EA05242043506090680B4C204060
:10031000D1E902542C434D7944EA450420439060CE
:10032000D06A20F470000C7C641EE4B2234340EADF
:100330000350D06230BD0000FFFEF0FFFDF7F1FF7B
:10034000F0B504460D4600200021092D11DDE068BE
:10035000A5F10A0606EB4607072606FA07F18843C9
:10036000A5F10A0606EB460603FA06F10843E0602B
:100370000CE0206905EB4507072606FA07F18843DC
:1003800005EB450603FA06F108432061072A0FDA58
:10039000606B561E06EB86071F2606FA07F1884398
:1003A000561E06EB860605FA06F10843606322E056
:1003B0000D2A0FDA206BD61F06EB86071F2606FADA
:1003C00007F18843D61F06EB860605FA06F10843B7
:1003D000206310E0E06AA2F10D0606EB86071F26F7
:1003E00006FA07F18843A2F10D0606EB860605FA28
:1003F00006F10843E062F0BD21B1826842F4A00238
:10040000826003E0826822F4A002826070470000EC
:1004100000B587B0002006900121042000F0FCF810
:100420000120ADF8180000208DF81B0006A919481E
:1004300000F037F84FF4004000F0E2F801214802E4
:1004400000F0EAF8142101A8FFF775FE00208DF8EE
:10045000090004904FF460200390002001900120D7
:100460008DF8140000208DF8080001A90A48FFF754
:100470003FFF0223012200210748FFF761FF01210E
:100480000548FFF71DFF01210348FFF70EFF07B0E6
:1004900000BD0000000801400024014000BFFEE74D
:1004A00070472DE9F0410246002500260020002378
:1004B0000024002791F803C00CF00F0591F803C049
:1004C0000CF0100CBCF1000F03D091F802C04CEA04
:1004D000050591F800C0BCF1000F31D01468002070
:1004E0002BE04FF0010C0CFA00F3B1F800C00CEA5D
:1004F00003069E4220D183004FF00F0C0CFA03F745
:10050000BC4305FA03FC4CEA040491F803C0BCF1B7
:10051000280F06D14FF0010C0CFA00FCC2F814C0F1
:100520000AE091F803C0BCF1480F05D14FF0010C6F
:100530000CFA00FCC2F810C0401C0828D1D314608B
:10054000B1F800C0BCF1FF0F34DD546800202EE08C
:1005500000F1080C4FF0010808FA0CF3B1F800C0E4
:100560000CEA03069E4221D183004FF00F0C0CFAD7
:1005700003F7BC4305FA03FC4CEA040491F803C0FA
:10058000BCF1280F05D100F1080C08FA0CF8C2F8EC
:10059000148091F803C0BCF1480F07D100F1080C9A
:1005A0004FF0010808FA0CF8C2F81080401C082827
:1005B000CED35460BDE8F0810AB1016100E0416131
:1005C000704700BFFEE700BFFEE7000008B500204F
:1005D00000900121102000F01FF84FF40050ADF8FA
:1005E000000014208DF8030003208DF802006946F6
:1005F0000148FFF756FF08BD0010014070477047E3
:1006000001460020034A506820F4404008435060EF
:10061000704700000010024029B1064A9269024367
:10062000044B9A6104E0034A92698243014B9A6148
:100630007047000000100240704710B500F002F84B
:1006400010BD00000CB500200190009033480068F8
:1006500040F480303149086000BF3048006800F441
:10066000003000900198401C0190009818B9019842
:10067000B0F5A06FF1D12948006800F4003010B146
:100680000120009001E0002000900098012843D153
:100690002348006840F010002149086008460068BF
:1006A00020F0070008600846006840F0020008607B
:1006B0001A4840681949486008464068486008463A
:1006C000406840F4806048600846406820F47C1030
:1006D00048600846406840F4E810486008460068F2
:1006E00040F08070086000BF0C48006800F00070A7
:1006F0000028F9D00948406820F003000749486005
:100700000846406840F00200486000BF0348406867
:1007100000F00C000828F9D10CBD000000100240C8
:10072000002002400448036840685A1C40F1000061
:1007300001490A60486070470000002010B5134866
:10074000006840F0010011490860084640681049FF
:1007500008400E494860084600680E4908400B49A9
:1007600008600846006820F4802008600846406859
:1007700020F4FE0048604FF41F008860FFF75DFF23
:100780004FF000600449086010BD000000100240F6
:100790000000FFF8FFFFF6FE08ED00E000BFFEE7F7
:1007A00002E008C8121F08C1002AFAD1704770473A
:1007B000002001E001C1121F002AFBD17047000098
:1007C000FFF726FEFFF702FF30E002211848FFF78F
:1007D00069FD01211648FFF70FFE00BF02211448F2
:1007E000FFF77DFD0028F9D01148FFF774FD07469B
:1007F0003846FFF7DDFC05460E49FFF7A7FC044627
:100800002046FFF7DAFC054600220B4BFFF7E8FC19
:1008100005D2012251030948FFF7CEFE05E0002270
:100820004FF400510548FFF7C7FE00BFCDE70000B9
:10083000002401406740533A0000F83F0010014097
:1008400060080008000000200C000000A00700085D
:100850006C0800080C00002004100000B00700081D
:0C0860000000000000000000000000008C
:04000005080000ED02
:00000001FF
