:020000040800F2
:100000002010002005010008D507000803030008A0
:10001000BB0400084D010008710A00080000000040
:100020000000000000000000000000000D090008B2
:100030005101000800000000D7070008F909000876
:100040001F0100081F0100081F0100081F01000810
:100050001F0100081F0100081F0100081F01000800
:100060001F0100081F0100081F0100081F010008F0
:100070001F0100081F0100081F0100081F010008E0
:100080001F0100081F0100081F0100081F010008D0
:100090001F0100081F0100081F0100081F010008C0
:1000A0001F0100081F0100081F0100081F010008B0
:1000B0001F0100081F0100081F0100081F010008A0
:1000C0001F0100081F0100081F0100081F01000890
:1000D0001F0100081F0100081F0100081F01000880
:1000E0001F0100081F0100081F010008DFF810D0E1
:1000F00000F01AF800480047950A0008AFF30080A6
:10010000201000200648804706480047FEE7FEE72B
:10011000FEE7FEE7FEE7FEE7FEE7FEE7FEE7FEE7B7
:10012000110A0008ED000008064C074D06E0E068E3
:1001300040F0010394E8070098471034AC42F6D32E
:10014000FFF7D8FFF40A0008140B000800BFFEE711
:1001500070472DE9F04102460025002600200023CB
:100160000024002791F803C00CF00F0591F803C09C
:100170000CF0100CBCF1000F03D091F802C04CEA57
:10018000050591F800C0BCF1000F31D014680020C3
:100190002BE04FF0010C0CFA00F3B1F800C00CEAB0
:1001A00003069E4220D183004FF00F0C0CFA03F798
:1001B000BC4305FA03FC4CEA040491F803C0BCF10B
:1001C000280F06D14FF0010C0CFA00FCC2F814C045
:1001D0000AE091F803C0BCF1480F05D14FF0010CC3
:1001E0000CFA00FCC2F810C0401C0828D1D31460DF
:1001F000B1F800C0BCF1FF0F34DD546800202EE0E0
:1002000000F1080C4FF0010808FA0CF3B1F800C037
:100210000CEA03069E4221D183004FF00F0C0CFA2A
:1002200003F7BC4305FA03FC4CEA040491F803C04D
:10023000BCF1280F05D100F1080C08FA0CF8C2F83F
:10024000148091F803C0BCF1480F07D100F1080CED
:100250004FF0010808FA0CF8C2F81080401C08287A
:10026000CED35460BDE8F081F0B50A4600230024E7
:100270000021002500F00046B6F1004F02D11D4ECE
:10028000F16901E01B4E7168C0F3034583B200F4CD
:100290004016B6F5401F08D121F07061154E766802
:1002A00026F07066134F7E6012E000F48016B6F5FB
:1002B000801F06D1032606FA05F4A14341F07061C0
:1002C00006E0460D360103FA06F6B14341F07061CF
:1002D00022B1460D360103FA06F6314300F000461E
:1002E000B6F1004F02D1034EF16101E0014E7160A1
:1002F000F0BD0000000001400AB1016100E0416171
:10030000704700BFFEE721B1028842F4806202809C
:1003100004E002884FF6FF331A4002807047002243
:1003200021F07F42D3438382704721B1028842F09B
:100330000102028004E002884FF6FE731A40028038
:10034000704721B1028842F48072028004E0028882
:100350004FF6FF631A400280704721B1028842F4D1
:100360000072028004E002884FF6FF531A400280B8
:1003700070470CB5024600200023019300930092C1
:100380000B0F019321F07F41019B1BB1009B1433A4
:10039000009303E0090C009B18330093009B1B683B
:1003A0000B400BB1012000E000200CBD2DE9F04313
:1003B00085B004460D460026B1460427DFF8CC8000
:1003C000A6884FF6C0700640684600F035FADDF8A2
:1003D00008802F48B8FBF0F01FFA80F946EA0906BA
:1003E000A68020884FF6FE7108402080002629490B
:1003F000286888420CD828684000B8FBF0F087B223
:10040000042F00DA04273E4309F10100208427E08D
:10041000E8884BF6FF71884206D1286800EB40005F
:10042000B8FBF0F087B209E0286800EBC00101EBEF
:100430000010B8FBF0F087B247F48047C7F30B0019
:1004400008B947F0010747F4004006434FF496709F
:1004500009FB00F04FF47A7190FBF1F0401C20840E
:10046000A683208840F00100208026884FF6F530D2
:100470000640A8886989084306432680A8892989F7
:100480000843208105B0BDE8F083000000127A0027
:1004900040420F00A086010008B5024600200090EF
:1004A00000920098084400900098008808BD01461A
:1004B000088AC0B270470182704700BFFEE70000A3
:1004C00000B585B00121084600F0A6F901210220FF
:1004D000FFF7CAFE0121082000F09EF94FF440709A
:1004E000ADF810001C208DF8130003208DF81200C9
:1004F00004A91148FFF72DFE0121480500F06CF911
:100500000121480500F078F900214FF4001000F0B7
:1005100073F90A4800900020ADF804004BF6FF7014
:10052000ADF8060069460648FFF740FF0121044880
:10053000FFF7FBFE05B000BD000C0140801A06006D
:10054000005400402DE9F04180460F4614461D46F8
:1005500001214046FFF7F5FE00BF4D494046FFF739
:1005600008FF0028F9D04B494046FFF7D8FE47F076
:1005700001014046FFF79FFF15E04549491C4046F1
:10058000FFF7F7FE012800D10EE042494046FFF791
:10059000F0FE012807D101214046FFF7DEFE4FF0B3
:1005A000FF30BDE8F081E8E700BF14214046FFF7C7
:1005B00073FF18214046FFF76FFF012D14D1002172
:1005C0004046FFF7A0FE01214046FFF7C6FE00BFF0
:1005D0002F493F314046FFF7CCFE0028F8D0404677
:1005E000FFF765FF207051E0022D24D10121404624
:1005F000FFF789FE00BF26493F314046FFF7B9FEAD
:100600000028F8D04046FFF752FF207000214046F6
:10061000FFF779FE01214046FFF79FFE00BF1C490E
:100620003F314046FFF7A5FE0028F8D04046FFF7CF
:100630003EFF60702AE001214046FFF764FE00267D
:100640000CE000BF12493F314046FFF792FE002800
:10065000F8D04046FFF72BFFA055761C681EB0422D
:10066000EFD800214046FFF74EFE01214046FFF73C
:1006700074FE00BF06493F314046FFF77AFE00286E
:10068000F8D04046FFF713FF691E6054002088E74A
:1006900001000010000400102DE9F04180460D46D5
:1006A00016461F4600BF4FF400314046FFF761FE7B
:1006B0000128F8D001214046FFF743FE00BF37492B
:1006C0004046FFF756FE0028F9D035494046FFF76F
:1006D00026FE05F0FE014046FFF7EDFE15E02F492E
:1006E000491C4046FFF745FE012800D10EE02C4989
:1006F0004046FFF73EFE012807D101214046FFF7A3
:100700002CFE4FF0FF30BDE8F081E8E700BF142178
:100710004046FFF7C1FE18214046FFF7BDFE00240A
:100720001CE014E01E494046FFF723FE012806D1D5
:1007300001214046FFF711FE6FF00100E3E7174982
:100740007F314046FFF715FE012800D100E0E9E7C0
:1007500000BF315D4046FFF7AEFE641CBC42E0D3F3
:1007600014E00F494046FFF704FE012806D101219D
:100770004046FFF7F2FD6FF00100C4E70749C91CCE
:100780004046FFF7F6FD012800D100E0E9E700BF91
:1007900001214046FFF7E1FD0020B4E70100001011
:1007A0000004001008B5002000900121102000F086
:1007B00033F84FF40050ADF8000014208DF803001A
:1007C00003208DF8020069460148FFF7C2FC08BD0E
:1007D000001001407047704729B1064AD2690243B0
:1007E000044BDA6104E0034AD2698243014BDA61C7
:1007F000704700000010024029B1064A1269024306
:10080000044B1A6104E0034A12698243014B1A61E6
:10081000704700000010024029B1064A9269024365
:10082000044B9A6104E0034A92698243014B9A6146
:10083000704700000010024030B500210022002463
:1008400000232D4D6D6805F00C0121B1042905D060
:10085000082923D105E0294D056022E0274D0560D8
:100860001FE0254D6D6805F47012234D6D6805F489
:100870008034022505EB92421CB9214D5543056099
:100880000BE01D4D6D6805F400351DB11C4D554341
:10089000056002E0194D5543056002E0174D056003
:1008A00000BF00BF144D6D6805F0F0010909154D3A
:1008B0006B5C0568DD4045600F4D6D6805F4E061D7
:1008C000090A104D6B5C4568DD4085600A4D6D6816
:1008D00005F46051C90A0B4D6B5C4568DD40C5608D
:1008E000054D6D6805F44041890B074D6B5CC5688B
:1008F000B5FBF3F5056130BD0010024000127A002F
:1009000000093D000000002010000020704710B5D5
:1009100000F002F810BD00000CB50020019000901E
:100920003348006840F480303149086000BF3048E7
:10093000006800F4003000900198401C019000987D
:1009400018B90198B0F5A06FF1D12948006800F4FA
:10095000003010B10120009001E0002000900098CC
:10096000012843D12348006840F010002149086065
:100970000846006820F0070008600846006840F05C
:10098000020008601A4840681949486008464068F3
:1009900048600846406840F4806048600846406807
:1009A00020F47C1048600846406840F4E810486035
:1009B0000846006840F08070086000BF0C4800687E
:1009C00000F000700028F9D00948406820F00300CA
:1009D000074948600846406840F00200486000BF90
:1009E0000348406800F00C000828F9D10CBD000055
:1009F00000100240002002400448036840685A1C6E
:100A000040F1000001490A6048607047140000206E
:100A100010B51348006840F001001149086008460D
:100A20004068104908400E494860084600680E4971
:100A300008400B4908600846006820F480200860E0
:100A40000846406820F4FE0048604FF41F008860AC
:100A5000FFF75DFF4FF000600449086010BD000023
:100A6000001002400000FFF8FFFFF6FE08ED00E076
:100A700000BFFEE702E008C8121F08C1002AFAD131
:100A800070477047002001E001C1121F002AFBD10E
:100A9000704700000EB5FFF713FDFFF783FE11A1AD
:100AA00003C9CDE90101052301AA78210F48FFF709
:100AB000F3FD01236A4678210C48FFF743FD9DF8BA
:100AC000000000F0400030B900224FF40051084807
:100AD000FFF712FC04E0012251030548FFF70CFC6C
:100AE00000BFFEE7008D14AFA500000000540040D9
:100AF00000100140140B000800000020200000003E
:100B0000740A0008340B00082000002000100000C8
:100B1000840A00080000000001020304010203042B
:100B20000607080902040608000000000000000093
:040B300000000000C1
:04000005080000ED02
:00000001FF
