:020000040800F2
:1000000010100020050100083F0600083706000810
:100010003B060008810400085508000800000000A5
:10002000000000000000000000000000F3060008CF
:10003000850400080000000041060008DD070008F4
:100040001F0100081F0100081F0100081F01000810
:100050001F0100081F0100081F0100081F01000800
:100060001F0100081F0100081F0100081F010008F0
:100070001F0100081F0100081F0100081F010008E0
:100080001F0100081F0100081F0100081F010008D0
:100090001F0100081F0100081F0100081F010008C0
:1000A0001F0100081F0100081F0100081F010008B0
:1000B0001F0100081F0100081F0100081F010008A0
:1000C0001F0100081F0100081F0100081F01000890
:1000D0001F0100081F0100081F0100081F01000880
:1000E0001F0100081F0100081F010008DFF810D0E1
:1000F00000F01AF80048004779080008AFF30080C4
:10010000101000200648804706480047FEE7FEE73B
:10011000FEE7FEE7FEE7FEE7FEE7FEE7FEE7FEE7B7
:10012000F5070008ED000008064C074D06E0E06802
:1001300040F0010394E8070098471034AC42F6D32E
:10014000FFF7D8FF94080008B408000800B587B08E
:100150000121084600F076FA0121084600F01EFA57
:100160000121344800F01AFA0020069001210820ED
:1001700000F068FA0820ADF8180018208DF81B0070
:1001800002208DF81A0006A92B4800F07CF91020F7
:10019000ADF8180048208DF81B0006A9264800F08D
:1001A00072F92020ADF8180018208DF81B000220ED
:1001B0008DF81A0006A9204800F065F901210420F5
:1001C00000F040FA4FF40040ADF8180010208DF810
:1001D0001B0002208DF81A0006A9184800F053F9F8
:1001E0000122D103154800F021FA0121080300F093
:1001F00029FA4FF48270ADF806000020ADF8040033
:10020000ADF80800ADF80A00ADF80C00ADF812002A
:100210002820ADF810004FF40070ADF80E0001A9D1
:10022000074800F039FA4FF48071054800F052FA9F
:1002300007B000BD00023000000C01400008014082
:10024000003001402DE9F04180460D4616461F461C
:100250000121404600F006FA2978404600F01AFADB
:10026000002417E000BF0221404600F007FA0028F2
:10027000F9D0601C295C404600F00CFA00BF012157
:10028000404600F0FBF90028F9D0404600F0FFF9A5
:100290003055641C781EA042E4D800BF01214046BE
:1002A00000F0ECF90028F9D0404600F0F0F9C1B2B6
:1002B000781E31540021404600F0D4F9BDE8F081A9
:1002C0000EB500224FF40041114800F0AFF90320B1
:1002D0008DF8000000208DF801008DF802008DF8E7
:1002E000030004236A4669460A48FFF7ABFFFF2074
:1002F0008DF8000001236A4669460648FFF7A2FF11
:100300000122D103024800F091F99DF800000EBDD2
:1003100000080140003001403EB5044606208DF83B
:10032000000000224FF40041534800F07FF9012300
:100330006A4669465148FFF785FF0122D1034E48BE
:1003400000F074F900224FF400414B4800F06EF9C0
:1003500020208DF8000000208DF801008DF80200AB
:100360008DF8030004236A4669464448FFF76AFF94
:100370000122D103404800F059F922E000224FF455
:1003800000413D4800F052F905208DF8000001239E
:100390006A4669463948FFF755FFFF208DF800008F
:1003A00001236A4669463548FFF74CFF0122D10315
:1003B000314800F03BF99DF8000000F0010000B961
:1003C00000E0DBE700BF06208DF8000000224FF4BC
:1003D0000041294800F02AF901236A466946274866
:1003E000FFF730FF0122D103234800F01FF900225C
:1003F0004FF40041204800F019F902208DF8000068
:1004000000208DF801008DF802008DF803008DF8B2
:10041000044005236A4669461848FFF713FF012286
:10042000D103154800F002F922E000224FF4004108
:10043000114800F0FBF805208DF8000001236A4602
:1004400069460E48FFF7FEFEFF208DF800000123ED
:100450006A4669460948FFF7F5FE0122D1030648BE
:1004600000F0E4F89DF8000000F0010000B900E0A1
:10047000DBE700BF3EBD0000000801400030014046
:1004800000BFFEE770472DE9F04102460025002637
:10049000002000230024002791F803C00CF00F0572
:1004A00091F803C00CF0100CBCF1000F03D091F8D0
:1004B00002C04CEA050591F800C0BCF1000F31D034
:1004C000146800202BE04FF0010C0CFA00F3B1F897
:1004D00000C00CEA03069E4220D183004FF00F0CAF
:1004E0000CFA03F7BC4305FA03FC4CEA040491F848
:1004F00003C0BCF1280F06D14FF0010C0CFA00FC30
:10050000C2F814C00AE091F803C0BCF1480F05D14D
:100510004FF0010C0CFA00FCC2F810C0401C082877
:10052000D1D31460B1F800C0BCF1FF0F34DD5468C2
:1005300000202EE000F1080C4FF0010808FA0CF33F
:10054000B1F800C00CEA03069E4221D183004FF0AF
:100550000F0C0CFA03F7BC4305FA03FC4CEA040445
:1005600091F803C0BCF1280F05D100F1080C08FA7E
:100570000CF8C2F8148091F803C0BCF1480F07D101
:1005800000F1080C4FF0010808FA0CF8C2F81080CE
:10059000401C0828CED35460BDE8F081F0B50A466F
:1005A000002300240021002500F00046B6F1004F92
:1005B00002D11D4EF16901E01B4E7168C0F3034585
:1005C00083B200F44016B6F5401F08D121F07061E7
:1005D000154E766826F07066134F7E6012E000F4C8
:1005E0008016B6F5801F06D1032606FA05F4A1434E
:1005F00041F0706106E0460D360103FA06F6B1439C
:1006000041F0706122B1460D360103FA06F631431E
:1006100000F00046B6F1004F02D1034EF16101E057
:10062000014E7160F0BD0000000001400AB101619F
:1006300000E04161704700BFFEE700BFFEE7704782
:100640007047000029B1064A92690243044B9A613F
:1006500004E0034A92698243014B9A6170470000AB
:100660000010024021B1028842F04002028004E002
:1006700002884FF6BF731A4002807047024600207E
:1006800013890B400BB1012000E0002070470146A8
:10069000888970478181704710B50022028802F472
:1006A00041520B884C8823438C882343CC882343B6
:1006B0000C8923434C8923438C892343CC892343CE
:1006C0001A430280838B4FF2FF74234083830B8A8B
:1006D000038210BD4FF6FF62914204D0028842F4BB
:1006E0008072028004E002884FF6FF631A400280A5
:1006F0007047704710B500F001F810BD0CB5002030
:10070000019000903348006840F48030314908601F
:1007100000BF3048006800F4003000900198401C91
:100720000190009818B90198B0F5A06FF1D129484F
:10073000006800F4003010B10120009001E00020BA
:1007400000900098012843D12348006840F0100031
:10075000214908600846006820F007000860084644
:10076000006840F0020008601A4840681949486073
:100770000846406848600846406840F48060486029
:100780000846406820F47C1048600846406840F401
:10079000E81048600846006840F08070086000BFBC
:1007A0000C48006800F000700028F9D00948406843
:1007B00020F00300074948600846406840F0020006
:1007C000486000BF0348406800F00C000828F9D1D9
:1007D0000CBD0000001002400020024004480368E5
:1007E00040685A1C40F1000001490A6048607047A7
:1007F0000400002010B51348006840F001001149C2
:10080000086008464068104908400E49486008469C
:1008100000680E4908400B4908600846006820F44B
:10082000802008600846406820F4FE0048604FF4CD
:100830001F008860FFF75EFF4FF00060044908600A
:1008400010BD0000001002400000FFF8FFFFF6FEA0
:1008500008ED00E000BFFEE702E008C8121F08C173
:10086000002AFAD170477047002001E001C1121F31
:10087000002AFBD170470000FFF768FC1220FFF749
:100880004BFDFFF71DFD0249087000BFFEE70000A9
:1008900000000020B4080008000000201000000044
:1008A00058080008C40800081000002000100000CC
:1008B00068080008000000000000000000000000C0
:0408C0000000000034
:04000005080000ED02
:00000001FF
