:020000040800F2
:100000006020002005010008AD0800080307000873
:1000100007070008D3040008650F0008000000006F
:10002000000000000000000000000000350D000886
:10003000D7040008000000003F0C0008ED0E000887
:100040001F0100081F0100081F0100081F01000810
:100050001F0100081F0100081F0100081F01000800
:100060001F0100081F0100081F0100081F010008F0
:100070001F0100081F0100081F0100081F010008E0
:100080001F0100081F0100081F0100081F010008D0
:100090001F0100081F0100081F0100081F010008C0
:1000A0001F0100081F0100081F0100081F010008B0
:1000B0001F0100081F0100081F0100081F010008A0
:1000C0001F0100081F0100081F0100081F01000890
:1000D0001F0100081F0100081F0100081F01000880
:1000E0001F0100081F0100081F010008DFF810D0E1
:1000F00000F078F900480047B10F0008AFF3008026
:10010000602000200648804706480047FEE7FEE7DB
:10011000FEE7FEE7FEE7FEE7FEE7FEE7FEE7FEE7B7
:10012000050F0008ED000008D2B201E000F8012B35
:10013000491EFBD270470022F6E710B513460A4667
:1001400004461946FFF7F0FF204610BD2DE9F04D9B
:1001500081EA030404F0004B21F0004514464FF0FF
:10016000000A23F0004150EA050220D054EA0102BF
:100170001DD0C5F30A570246C5F31303C1F313009C
:10018000C1F30A5640F4801543F48013A7EB060828
:10019000101BD64608F2FD3873EB050002D308F1B8
:1001A000010801E092185B41B8F1000F03DA00206A
:1001B0000146BDE8F08D00204FF4801106468446CC
:1001C0000EE0171B73EB050705D3121B63EB05034A
:1001D00006434CEA010C49084FEA300092185B4193
:1001E00050EA0107EDD152EA030012D082EA04007E
:1001F00083EA0501084305D0101BAB4106D201225A
:10020000002306E000224FF0004302E06FF00102FD
:1002100053101AEB06004CEB085110EB0A0041EBAF
:100220000B01BDE8F04D00F07FB80EB540F2334150
:1002300002910021CDE900110A460B4600F083F837
:1002400003B000BD01F0004330B421F0004150EA9A
:10025000010206D00A0DA2F56072C1F31301002A53
:1002600002DC30BC00207047440F44EAC104C100E6
:10027000E01830BC00EBC25000F01FB8202A04DBAD
:10028000203A00FA02F1002070479140C2F12003A9
:1002900020FA03F3194390407047202A04DB203AE8
:1002A00021FA02F00021704721FA02F3D040C2F196
:1002B000200291400843194670470029A8BF7047A3
:1002C000401C490008BF20F00100704710B4B0FA8C
:1002D00080FC00FA0CF050EA010404BF10BC704727
:1002E00049B1CCF1200421FA04F411FA0CF118BF41
:1002F000012121430843A3EB0C01CB1D4FEA006110
:100300004FEA102042BF002010BC704700EBC350E2
:1003100010440029A4BF10BC7047401C490008BF0E
:1003200020F0010010BC704710B5141E73F10004DA
:1003300008DA401C41F1000192185B411A4301D1D7
:1003400020F0010010BD2DE9F04D92469B4611B101
:10035000B1FA81F202E0B0FA80F220329046FFF763
:100360008DFF04460F4640EA0A0041EA0B0153465E
:100370005A46084313D0114653EA010019D0C8F178
:1003800040025046FFF789FF05460E465046594643
:100390004246FFF773FF084305D0012004E02046E2
:1003A0003946BDE8F08D0020054346EAE0762C434F
:1003B00037430A986305E40AA0EB08000022FD0A0F
:1003C00044EA47540A3002D500200146E9E7010516
:1003D00010196941DDE9084500196941BDE8F04D92
:1003E000A2E70000064C074D06E0E06840F001037C
:1003F00094E8070098471034AC42F6D3FFF77AFE32
:10040000C0270008E0270008F0B5837B03B9F0BDE2
:10041000002901DB802900DBF9E7002A01DB402A03
:1004200000DBF4E7438BBBB1838BABB1B0F9163083
:100430008B4205DCB0F91630448B23448B4200DC40
:10044000E5E7B0F91830934205DCB0F91830848B39
:100450002344934200DCDAE7837B012B1CD1D517C0
:1004600002EB5575ED1001EBC5154668755D144638
:10047000D61702EB5676F610A2EBC6070126BE4051
:100480003543EEB21346D51702EB5575ED1001EB6F
:10049000C51547687E551AE0D51702EB5575ED1066
:1004A00001EBC5154668755D1446D61702EB567606
:1004B000F610A2EBC6070126BE40B5431346D61779
:1004C00002EB5676F61001EBC6164768BD5500BF25
:1004D0009DE700BFFEE7704770B5044600F00EF8D8
:1004E000054800680519002600BF03480068002180
:1004F000401BB141F9D370BD140000202DE9F0413B
:1005000086B02E480078002855D101202B4908706C
:10051000142101A8FFF70FFE4FF0E020006920F042
:1005200001004FF0E021086100202549086001A882
:1005300000F096FB4FF0E020006940F002004FF021
:10054000E021086100211F48C1774FF47A710298B9
:10055000B0FBF1F4B4F1807F09D3E4084FF0E02060
:10056000006920F004004FF0E021086107E04FF03F
:10057000E020006940F004004FF0E0210861601EB7
:100580004FF0E02148610846006940F00100086131
:10059000496921F07F41481CFFF747FE07463A466C
:1005A0000B4600200849FFF7D1FD0546FFF74AFE3C
:1005B0000649086000BF06B0BDE8F08118000020C1
:1005C0001400002000ED00E000408F401C000020DF
:1005D0002DE9F041024600250026002000230024DA
:1005E000002791F803C00CF00F0591F803C00CF040
:1005F000100CBCF1000F03D091F802C04CEA0505C5
:1006000091F800C0BCF1000F31D0146800202BE03D
:100610004FF0010C0CFA00F3B1F800C00CEA03062D
:100620009E4220D183004FF00F0C0CFA03F7BC431D
:1006300005FA03FC4CEA040491F803C0BCF1280F4E
:1006400006D14FF0010C0CFA00FCC2F814C00AE00D
:1006500091F803C0BCF1480F05D14FF0010C0CFA22
:1006600000FCC2F810C0401C0828D1D31460B1F8B7
:1006700000C0BCF1FF0F34DD546800202EE000F113
:10068000080C4FF0010808FA0CF3B1F800C00CEAAE
:1006900003069E4221D183004FF00F0C0CFA03F7A2
:1006A000BC4305FA03FC4CEA040491F803C0BCF116
:1006B000280F05D100F1080C08FA0CF8C2F81480D4
:1006C00091F803C0BCF1480F07D100F1080C4FF0BE
:1006D000010808FA0CF8C2F81080401C0828CED394
:1006E0005460BDE8F0810246002093680B400BB1D6
:1006F000012000E0002070470AB1016100E0416183
:10070000704700BFFEE700BFFEE7000008B50348E2
:1007100000906946024800F0DDF808BD950F00081A
:100720003800002038B5044635492068884204D195
:100730000121042000F084FA19E03249206888423F
:1007400004D10121082000F07BFA10E02E49206836
:10075000884204D10121102000F072FA07E02B49F1
:100760002068884203D10121202000F069FAA18984
:100770000122A068FFF7C0FFA18801222068FFF7CF
:10078000BBFF1F49A068884204D10121042000F06A
:1007900057FA19E01B49A068884204D101210820BA
:1007A00000F04EFA10E01849A068884204D10121F7
:1007B000102000F045FA07E01449A068884203D1F0
:1007C0000121202000F03CFAA088ADF800001420A0
:1007D0008DF8030002208DF8020069462068FFF7BB
:1007E000F7FEA089ADF8000014208DF80300022068
:1007F0008DF802006946A068FFF7EAFE38BD0000E8
:1008000000080140000C01400010014000140140AC
:100810002DE9F04104460E4617469846A18901226B
:10082000A068FFF769FFA18801222068FFF764FF35
:10083000A1890022A068FFF75FFF012000F0A3FB61
:1008400006F0FE01204600F076FA30B1204600F0B6
:10085000B5FA4FF0FF30BDE8F08100250CE0795D7E
:10086000204600F068FA28B1204600F0A7FA6FF0A1
:100870000100F0E7681C85B24545F0DB204600F03A
:100880009DFA0020E7E7000010B506480649086019
:100890008015888003488860401588810846FFF7E6
:1008A00041FF10BD000C014028000020704710B52A
:1008B00004464FF480616068FFF73DFC10BD10B541
:1008C0000446B4F91220B4F91010204600F067F97C
:1008D00010BD000038B504460D462868206040F27F
:1008E000014000F09BFB6060606810B96FF0010090
:1008F00038BD6068401C60604FF480616068FFF73D
:100900001AFC00231A46AE21204600F009F910B166
:100910004FF0FF30ECE78020009001236A46D5219C
:10092000204600F0FDF810B14FF0FF30E0E73F2027
:10093000009001236A46A821204600F0F1F810B18A
:100940004FF0FF30D4E70020009001236A46D32106
:10095000204600F0E5F810B14FF0FF30C8E7002363
:100960001A464021204600F0DBF810B14FF0FF306E
:10097000BEE71420009001236A468D21204600F036
:10098000CFF810B14FF0FF30B2E700200090012304
:100990006A462021204600F0C3F810B14FF0FF3026
:1009A000A6E700231A46A121204600F0B9F810B1AD
:1009B0004FF0FF309CE700231A46C821204600F084
:1009C000AFF810B14FF0FF3092E7122000900123F2
:1009D0006A46DA21204600F0A3F810B14FF0FF304C
:1009E00086E7CF20009001236A468121204600F04F
:1009F00097F810B14FF0FF307AE7F1200090012313
:100A00006A46D921204600F08BF810B14FF0FF3034
:100A10006EE72020009001236A46DB21204600F08B
:100A20007FF810B14FF0FF3062E700231A462E2105
:100A3000204600F075F810B14FF0FF3058E7002362
:100A40001A46A421204600F06BF810B14FF0FF3099
:100A50004EE700231A46A621204600F061F810B1A7
:100A60004FF0FF3044E700231A46AF21204600F044
:100A700057F810B14FF0FF303AE701206073207350
:100A80000020A07320826082A082E08320846084A2
:100A9000A0840248A06000202AE7000094240008F7
:100AA000028A0A4412B20282704738B50446002016
:100AB0008DF8000001236A462021204600F030F81E
:100AC00010B14FF0FF3038BD00208DF800007F20BE
:100AD0008DF8010002236A462121204600F020F80B
:100AE00010B14FF0FF30EEE700208DF80000072036
:100AF0008DF8010002236A462221204600F010F8FA
:100B000010B14FF0FF30DEE74FF48062204661689D
:100B100000F027F810B14FF0FF30D4E70020D2E703
:100B20002DE9FC4105460E461746984600208DF8F3
:100B300000008DF80160002405E0395DA01C0DF86F
:100B40000010601CC4B24445F7DBA21C6946782043
:100B50002B68984718B14FF0FF30BDE8FC810020AA
:100B6000FBE72DE9F04105460C461646002714F830
:100B7000018C402004F8010C701C82B2611E7820A8
:100B80002B68984700B17F1E04F8018C3846BDE8F9
:100B9000F0810182428270470173427370472DE9F0
:100BA000FC5F04468A469346207B08B9BDE8FC9F5B
:100BB000607B00B9FAE7607B00EBD0714910A0EBD5
:100BC000410139B1607B00EBD0714D102E462F46AC
:100BD000A8460CE0607B00EBD0714D102E462F46EE
:100BE000A846A8F101001FFA80F8781E87B2A07B02
:100BF0000190207BA073AAEB08000FFA80F916E0A1
:100C0000ABEB070000B2009008E049462046009A8E
:100C1000FFF7FAFB0098401C00B200900BEB0601B6
:100C200000988142F1DA09F101000FFA80F90AEB2C
:100C300005004845E4DA0198A07300BFB6E77047A5
:100C400029B1064A92690243044B9A6104E0034ABF
:100C500092698243014B9A61704700000010024084
:100C600030B500210022002400232D4D6D6805F0D1
:100C70000C0121B1042905D0082923D105E0294D13
:100C8000056022E0274D05601FE0254D6D6805F4E5
:100C90007012234D6D6805F48034022505EB9242F5
:100CA0001CB9214D554305600BE01D4D6D6805F4E1
:100CB00000351DB11C4D5543056002E0194D5543EB
:100CC000056002E0174D056000BF00BF144D6D6860
:100CD00005F0F0010909154D6B5C0568DD404560C4
:100CE0000F4D6D6805F4E061090A104D6B5C4568B5
:100CF000DD4085600A4D6D6805F46051C90A0B4DF1
:100D00006B5C4568DD40C560054D6D6805F440418C
:100D1000890B074D6B5CC568B5FBF3F5056130BD0C
:100D20000010024000127A0000093D00000000207F
:100D300010000020704770B504460E4607251DE0E0
:100D4000A18800222068FFF7D7FC0123AB40334085
:100D50000BB1012300E000231A46A189A068FFF728
:100D6000CBFC022000F00FF9A18801222068FFF7D8
:100D7000C3FC022000F007F9681E45B2002DDFDA3F
:100D8000A18800222068FFF7B7FCA1890122A06892
:100D9000FFF7B2FC022000F0F6F8A18801222068DB
:100DA000FFF7AAFC022000F0EEF8A189A068FFF787
:100DB0009AFC012800D170BD0020FCE710B5044664
:100DC000A18800222068FFF797FC012000F0DBF8E3
:100DD000A1890022A068FFF78FFC012000F0D3F862
:100DE000A18801222068FFF787FC012000F0CBF8E2
:100DF000A1890122A068FFF77FFC012000F0C3F861
:100E000010BD10B500F002F810BD00000CB50020B8
:100E1000019000903348006840F480303149086008
:100E200000BF3048006800F4003000900198401C7A
:100E30000190009818B90198B0F5A06FF1D1294838
:100E4000006800F4003010B10120009001E00020A3
:100E500000900098012843D12348006840F010001A
:100E6000214908600846006820F00700086008462D
:100E7000006840F0020008601A484068194948605C
:100E80000846406848600846406840F48060486012
:100E90000846406820F47C1048600846406840F4EA
:100EA000E81048600846006840F08070086000BFA5
:100EB0000C48006800F000700028F9D0094840682C
:100EC00020F00300074948600846406840F00200EF
:100ED000486000BF0348406800F00C000828F9D1C2
:100EE0000CBD0000001002400020024004480368CE
:100EF00040685A1C40F1000001490A604860704790
:100F00001400002010B51348006840F0010011499A
:100F1000086008464068104908400E494860084685
:100F200000680E4908400B4908600846006820F434
:100F3000802008600846406820F4FE0048604FF4B6
:100F40001F008860FFF75DFF4FF0006004490860F4
:100F500010BD0000001002400000FFF8FFFFF6FE89
:100F600008ED00E000BFFEE702E008C8121F08C15C
:100F7000002AFAD170477047002001E001C1121F1A
:100F8000002AFBD17047002100E0491CC2008A42C0
:100F9000FBD8704770B504460D46164633462A46C0
:100FA00021460248FFF734FC70BD000028000020F5
:100FB000FFF76AFCFFF7AAFB2DE01748FFF777FC65
:100FC000032201211448FFF7E7FD1E2214211248D5
:100FD000FFF7DFFD1048FFF772FC0F48FFF765FDD4
:100FE0004FF4FA70FFF778FA012412E00A48FFF78D
:100FF0005EFC0A210848FFF753FD0748FFF75FFC36
:101000000548FFF752FD4FF4FA70FFF765FA601CD0
:10101000C4B2082CEADBD0E738000020F0B50B3072
:10102000154D20F007010024144A0FE003688B429D
:101030000BD38B4205D95E1A43184768C3E9006792
:1010400000E04368136002C004E0021D106800283D
:10105000ECD12046002802D1286808B10020F0BD5C
:10106000064A07481060074A121A22F00702C0E930
:10107000002401202860D7E7240000202000002061
:10108000640000206010002000808080808000804C
:10109000A0A0A05050F850F850502078A05008D090
:1010A000C0C81020409818E090A040A89068C040A8
:1010B0008020408080804020804020202040805040
:1010C00020F820502020F82020C04080F8C0C00820
:1010D00010204080708898A8C8887040C040404068
:1010E00040E0708808102040F8F810201008887040
:1010F00010305090F81010F880F0080888703040D8
:1011000080F0888870F8081020404040708888700F
:1011100088887070888878081060C0C000C0C0C01F
:10112000C000C0408010204080402010F800F880AF
:10113000402010204080708808102000207088080F
:1011400068A8A87070888888F88888F08888F088EF
:1011500088F070888080808870E09088888890E02F
:10116000F88080F08080F8F88080E080808070884F
:101170008080988870888888F8888888C040404037
:101180004040C0301010101090608890A0C0A09017
:1011900088808080808080F888D8A888888888881F
:1011A00088C8A898888870888888888870F0888817
:1011B000F080808070888888A89068F08888F0A087
:1011C0009088788080700808F0F820202020202067
:1011D0008888888888887088888888885020888847
:1011E00088A8A8D888888850205088888888502067
:1011F000202020F80810204080F8E0808080808047
:10120000E08040201008E02020202020E0205088AE
:10121000F880402070087888788080B0C88888F08E
:101220007080808870080868988888787088F8804E
:1012300070304840E040404078887808308080B086
:10124000C88888884000C0404040E010003010103E
:101250009060808090A0C0A090C04040404040E09E
:10126000D0A8A88888B0C88888887088888870F0D6
:1012700088F08080689878080808B0C880808070FE
:10128000807008704040E0404048308888888898E6
:101290006888888850208888A8A85088502050885E
:1012A0008888780870F8102040F82040408040403E
:1012B000208080808080808080404020404080402E
:1012C000A810000020000000210000002200000003
:1012D000230000002400000025000000260000007C
:1012E0002700000028000000290000002A0000005C
:1012F0002B0000002C0000002D0000002E0000003C
:101300002F0000003000000031000000320000001B
:1013100033000000340000003500000036000000FB
:101320003700000038000000390000003A000000DB
:101330003B0000003C0000003D0000003E000000BB
:101340003F0000004000000041000000420000009B
:10135000430000004400000045000000460000007B
:101360004700000048000000490000004A0000005B
:101370004B0000004C0000004D0000004E0000003B
:101380004F0000005000000051000000520000001B
:1013900053000000540000005500000056000000FB
:1013A0005700000058000000590000005A000000DB
:1013B0005B0000005C0000005D0000005E000000BB
:1013C0005F0000006000000061000000620000009B
:1013D000630000006400000065000000660000007B
:1013E0006700000068000000690000006A0000005B
:1013F0006B0000006C0000006D0000006E0000003B
:101400006F0000007000000071000000720000001A
:1014100073000000740000007500000076000000FA
:101420007700000078000000790000007A000000DA
:101430007B0000007C0000007D0000007E000000BA
:10144000B824000820000000E803000007000000A6
:10145000000000000000000000000000000000008C
:10146000000000000000000088100008EC240008C4
:1014700021000000E8030000070000000000000059
:101480000000000000000000010007000300010050
:1014900007000000891000081C2500082200000039
:1014A000E80300000700000000000000000000004A
:1014B000000000000300030002000400030000001D
:1014C000901000084C25000823000000E8030000ED
:1014D0000700000000000000000000000000000005
:1014E000050007000100010007000000931000083C
:1014F0007C25000824000000E8030000070000002D
:1015000000000000000000000000000005000600D0
:1015100001000200060000009A100008AC25000837
:1015200025000000E80300000700000000000000A4
:10153000000000000000000005000700010001009D
:1015400007000000A0100008DC25000826000000AD
:10155000E803000007000000000000000000000099
:101560000000000005000700010001000700000066
:10157000A71000080C26000827000000E803000060
:101580000700000000000000000000000000000054
:10159000020003000200050003000000AE10000876
:1015A0003C26000828000000E803000007000000B7
:1015B0000000000000000000000000000300070021
:1015C0000200010007000000B110000878260008A2
:1015D00029000000E80300000700000000000000F0
:1015E00000000000000000000300070002000100EE
:1015F00007000000B8100008A82600082A00000014
:10160000E8030000070000000000000000000000E8
:1016100000000000050005000100020005000000B8
:10162000BF100008D82600082B000000E8030000C7
:1016300007000000000000000000000000000000A3
:10164000050005000100020005000000C4100008AC
:10165000082700082C000000E80300000700000035
:101660000000000000000000000000000200030075
:101670000200010003000000C9100008382700081C
:101680002D000000E803000007000000000000003B
:10169000000000000000000005000100010004003F
:1016A00001000000CC100008682700082E00000090
:1016B000E803000007000000000000000000000038
:1016C0000000000002000200020001000200000011
:1016D000CD100008982700082F000000E803000044
:1016E00007000000000000000000000000000000F3
:1016F000050005000100020005000000CF100008F1
:10170000C024000830000000E803000007000000CB
:1017100000000000000000000000000005000700BD
:101720000100010007000000D4100008F4240008A4
:1017300031000000E8030000070000000000000086
:10174000000000000000000003000700020001008C
:1017500007000000DB10000824250008320000000C
:10176000E803000007000000000000000000000087
:101770000000000005000700010001000700000054
:10178000E21000085425000833000000E8030000C0
:101790000700000000000000000000000000000042
:1017A000050007000100010007000000E910000823
:1017B0008425000834000000E80300000700000052
:1017C000000000000000000000000000050007000D
:1017D0000100010007000000F0100008B425000817
:1017E00035000000E80300000700000000000000D2
:1017F00000000000000000000500070001000100DB
:1018000007000000F7100008E4250008360000007B
:10181000E8030000070000000000000000000000D6
:1018200000000000050007000100010007000000A3
:10183000FE1000081426000837000000E80300002E
:101840000700000000000000000000000000000091
:101850000500070001000100070000000511000855
:101860004426000838000000E803000007000000DC
:10187000000000000000000000000000050007005C
:1018800001000100070000000C110008802600087C
:1018900039000000E803000007000000000000001D
:1018A000000000000000000005000700010001002A
:1018B0000700000013110008B02600083A000000DD
:1018C000E803000007000000000000000000000026
:1018D00000000000020005000200020005000000F8
:1018E0001A110008E02600083B000000E803000091
:1018F00007000000000000000000000000000000E1
:101900000200060002000100060000001F1100088E
:10191000102700083C000000E8030000070000005A
:1019200000000000000000000000000004000700AC
:1019300002000100070000002511000840270008F0
:101940003D000000E8030000070000000000000068
:10195000000000000000000005000300010003007B
:10196000030000002C110008702700083E00000052
:10197000E803000007000000000000000000000075
:101980000000000004000700010001000700000043
:101990002F110008A02700083F000000E803000006
:1019A0000700000000000000000000000000000030
:1019B00005000700010001000700000036110008C3
:1019C000C824000840000000E803000007000000F1
:1019D00000000000000000000000000005000700FB
:1019E00001000100070000003D110008FC24000870
:1019F00041000000E80300000700000000000000B4
:101A000000000000000000000500070001000100C8
:101A100007000000441100082C25000842000000C7
:101A2000E8030000070000000000000000000000C4
:101A30000000000005000700010001000700000091
:101A40004B1100085C25000843000000E80300007B
:101A5000070000000000000000000000000000007F
:101A600005000700010001000700000052110008F6
:101A70008C25000844000000E80300000700000077
:101A8000000000000000000000000000050007004A
:101A9000010001000700000059110008BC250008E2
:101AA00045000000E80300000700000000000000FF
:101AB0000000000000000000050007000100010018
:101AC0000700000060110008EC2500084600000037
:101AD000E803000007000000000000000000000014
:101AE00000000000050007000100010007000000E1
:101AF000671100081C26000847000000E8030000EA
:101B000007000000000000000000000000000000CE
:101B10000500070001000100070000006E11000829
:101B20004C26000848000000E80300000700000001
:101B30000000000000000000000000000500070099
:101B40000100010007000000751100088826000848
:101B500049000000E803000007000000000000004A
:101B60000000000000000000030007000200010068
:101B7000070000007C110008B82600084A00000099
:101B8000E803000007000000000000000000000063
:101B90000000000005000700010001000700000030
:101BA00083110008E82600084B000000E80300004D
:101BB000070000000000000000000000000000001E
:101BC0000500070001000100070000008A1100085D
:101BD000182700084C000000E80300000700000080
:101BE00000000000000000000000000005000700E9
:101BF00001000100070000009111000848270008BB
:101C00004D000000E8030000070000000000000095
:101C100000000000000000000500070001000100B6
:101C20000700000098110008782700084E00000007
:101C3000E8030000070000000000000000000000B2
:101C4000000000000500070001000100070000007F
:101C50009F110008A82700084F000000E8030000BB
:101C6000070000000000000000000000000000006D
:101C7000050007000100010007000000A611000890
:101C8000D024000850000000E80300000700000016
:101C90000000000000000000000000000500070038
:101CA0000100010007000000AD1100080425000834
:101CB00051000000E80300000700000000000000E1
:101CC0000000000000000000050007000100010006
:101CD00007000000B411000834250008520000007D
:101CE000E803000007000000000000000000000002
:101CF00000000000050007000100010007000000CF
:101D0000BB1100086425000853000000E803000030
:101D100007000000000000000000000000000000BC
:101D2000050007000100010007000000C2110008C3
:101D30009425000854000000E8030000070000009C
:101D40000000000000000000000000000500070087
:101D50000100010007000000C9110008C4250008A7
:101D600055000000E803000007000000000000002C
:101D70000000000000000000050007000100010055
:101D800007000000D0110008F425000856000000EC
:101D9000E803000007000000000000000000000051
:101DA000000000000500070001000100070000001E
:101DB000D71100082426000857000000E80300009F
:101DC000070000000000000000000000000000000C
:101DD000050007000100010007000000DE110008F7
:101DE0005426000858000000E80300000700000027
:101DF00000000000000000000000000005000700D7
:101E00000100010007000000E5110008902600080D
:101E100059000000E8030000070000000000000077
:101E200000000000000000000500070001000100A4
:101E300007000000EC110008C02600085A0000004E
:101E4000E8030000070000000000000000000000A0
:101E5000000000000500070001000100070000006D
:101E6000F3110008F02600085B000000E803000002
:101E7000070000000000000000000000000000005B
:101E8000030007000200010007000000FA1100082B
:101E9000202700085C000000E803000007000000A5
:101EA0000000000000000000000000000500050028
:101EB0000100020005000000011200085027000880
:101EC0005D000000E80300000700000000000000C3
:101ED00000000000000000000300070002000100F5
:101EE0000700000006120008802700085E000000BE
:101EF000E8030000070000000000000000000000F0
:101F000000000000050003000100050003000000C0
:101F10000D120008B02700085F000000E803000071
:101F200007000000000000000000000000000000AA
:101F3000050001000100010001000000101200086E
:101F4000D824000860000000E8030000070000003B
:101F5000000000000000000000000000030003007B
:101F60000200050003000000111200080C25000803
:101F700061000000E803000007000000000000000E
:101F80000000000000000000050005000100010045
:101F900005000000141200083C2500086200000043
:101FA000E80300000700000000000000000000003F
:101FB000000000000500070001000100070000000C
:101FC000191200086C25000863000000E8030000F7
:101FD00007000000000000000000000000000000FA
:101FE00005000500010001000500000020120008A6
:101FF0009C25000864000000E803000007000000C2
:1020000000000000000000000000000005000700C4
:10201000010001000700000025120008CC2500087F
:1020200065000000E8030000070000000000000059
:102030000000000000000000050005000100010094
:10204000050000002C120008FC25000866000000B6
:10205000E80300000700000000000000000000008E
:10206000000000000500070001000100070000005B
:10207000311200082C26000867000000E803000069
:102080000700000000000000000000000000000049
:1020900005000500010001000500000038120008DD
:1020A0005C26000868000000E8030000070000004C
:1020B0000000000000000000000000000500070014
:1020C00001000100070000003D12000898260008EA
:1020D00069000000E80300000700000000000000A5
:1020E00000000000000000000300070002000100E3
:1020F0000700000044120008C82600086A0000001B
:10210000E8030000070000000000000000000000DD
:1021100000000000040007000100010007000000AB
:102120004B120008F82600086B000000E8030000CE
:102130000700000000000000000000000000000098
:10214000040007000200010007000000521200080E
:10215000282700086C000000E803000007000000CA
:102160000000000000000000000000000300070065
:10217000020001000700000059120008582700085B
:102180006D000000E80300000700000000000000F0
:102190000000000000000000050005000100010033
:1021A0000500000060120008882700086E0000008B
:1021B000E80300000700000000000000000000002D
:1021C00000000000050005000100010005000000FE
:1021D00065120008B82700086F000000E80300003F
:1021E00007000000000000000000000000000000E8
:1021F0000500050001000100050000006A1200084A
:10220000E024000870000000E80300000700000060
:1022100000000000000000000000000005000500B4
:1022200001000100050000006F12000814250008DD
:1022300071000000E803000007000000000000003B
:102240000000000000000000050006000100010081
:102250000600000074120008442500087200000007
:10226000E80300000700000000000000000000007C
:10227000000000000500050001000100050000004D
:102280007A1200087425000873000000E8030000BB
:102290000700000000000000000000000000000037
:1022A0000500050001000100050000007F12000884
:1022B000A425000874000000E803000007000000E7
:1022C0000000000000000000000000000500070002
:1022D000010001000700000084120008D425000856
:1022E00075000000E8030000070000000000000087
:1022F00000000000000000000500060001000100D1
:10230000060000008B12000804260008760000007A
:10231000E8030000070000000000000000000000CB
:10232000000000000500050001000100050000009C
:10233000911200083426000877000000E80300002E
:102340000700000000000000000000000000000086
:1023500005000500010001000500000096120008BC
:102360006426000878000000E80300000700000071
:102370000000000000000000000000000500050053
:1023800001000100050000009B120008A0260008C3
:1023900079000000E80300000700000000000000D2
:1023A0000000000000000000050005000100010021
:1023B00005000000A0120008D02600087A000000E6
:1023C000E80300000700000000000000000000001B
:1023D00000000000050005000100010005000000EC
:1023E000A5120008002700087B000000E803000099
:1023F00007000000000000000000000000000000D6
:10240000030007000200010007000000AA120008F4
:10241000302700087C000000E803000007000000EF
:1024200000000000000000000000000001000700A4
:102430000300010007000000B11200086027000837
:102440007D000000E803000007000000000000001D
:10245000000000000000000003000700020001006F
:1024600007000000B8120008902700087E00000056
:10247000E80300000700000000000000000000006A
:10248000000000000500030001000500030000003B
:10249000BF120008E82400086C26000800000000B5
:1024A00008004800480007000800000000005F0026
:1024B000C412000840140008303032300000000020
:1024C0003030333000000000303034300000000085
:1024D0003030353000000000303036300000000071
:1024E0003030373000000000322E310030303231D1
:1024F0000000000030303331000000003030343153
:10250000000000003030353100000000303036313E
:10251000000000003030373100000000303032322F
:102520000000000030303332000000003030343220
:10253000000000003030353200000000303036320C
:1025400000000000303037320000000030303233FD
:1025500000000000303033330000000030303433EE
:1025600000000000303035330000000030303633DA
:1025700000000000303037330000000030303234CB
:1025800000000000303033340000000030303434BC
:1025900000000000303035340000000030303634A8
:1025A0000000000030303734000000003030323599
:1025B000000000003030333500000000303034358A
:1025C0000000000030303535000000003030363576
:1025D0000000000030303735000000003030323667
:1025E0000000000030303336000000003030343658
:1025F0000000000030303536000000003030363644
:102600000000000030303736000000003030323734
:102610000000000030303337000000003030343725
:102620000000000030303537000000003030363711
:102630000000000030303737000000003030323802
:1026400000000000303033380000000030303438F3
:1026500000000000303035380000000030303638DF
:102660000000000030303738000000004D61747207
:1026700069782035783800003030323900000000A9
:1026800030303339000000003030343900000000B1
:10269000303035390000000030303639000000009D
:1026A0003030373900000000303032410000000087
:1026B0003030334100000000303034410000000071
:1026C000303035410000000030303641000000005D
:1026D000303037410000000030303242000000004E
:1026E000303033420000000030303442000000003F
:1026F000303035420000000030303642000000002B
:10270000303037420000000030303243000000001B
:10271000303033430000000030303443000000000C
:1027200030303543000000003030364300000000F8
:1027300030303743000000003030324400000000E9
:1027400030303344000000003030344400000000DA
:1027500030303544000000003030364400000000C6
:1027600030303744000000003030324500000000B7
:1027700030303345000000003030344500000000A8
:102780003030354500000000303036450000000094
:102790003030374500000000303032460000000085
:1027A0003030334600000000303034460000000076
:1027B0003030354600000000303036460000000062
:1027C000E02700080000002028000000680F000833
:1027D000082800082800002038200000780F000892
:1027E00000000000010203040102030406070809B7
:1027F00002040608000000000000000000000000C5
:082800000000000000000000D0
:04000005080000ED02
:00000001FF
